:020000040800F2
:10000000002000205533000817330008193300087A
:100010001B3300081D3300081F33000800000000D8
:100020000000000000000000000000002133000874
:1000300023330008000000002533000827330008A0
:100040009D3300089D3300089D3300089D33000850
:100050009D3300089D3300089D3300089D33000840
:100060009D3300089D3300089D330008313300089C
:100070009D3300089D3300089D3300089D33000820
:100080009D3300089D330008413300080000000044
:100090000000000000000000000000009D33000888
:1000A0009D3300089D3300089D3300089D330008F0
:1000B0009D3300089D3300089D3300089D330008E0
:1000C0009D33000800000000000000009D33000880
:1000D0009D3300089D3300089D3300089D330008C0
:1000E0009D3300089D3300089D3300080000000088
:1000F0000000000000000000000000000000000000
:1001000000000000000000000000000000000000EF
:1001100000000000000000009D3300089D3300082F
:1001200000000000000000000000000000000000CF
:1001300000000000000000000000000000000000BF
:1001400000000000000000000000000000000000AF
:10015000000000000000000000000000000000009F
:10016000000000000000000000000000000000008F
:10017000000000000000000000000000000000007F
:10018000000000000000000000000000000000006F
:10019000000000000000000000000000000000005F
:1001A000000000000000000000000000000000004F
:1001B000000000000000000000000000000000003F
:1001C0000000000000000000000000005FF808F1DF
:1001D00081F0004102E000BF83F0004330B54FEAF8
:1001E00041044FEA430594EA050F08BF90EA020F65
:1001F0001FBF54EA000C55EA020C7FEA645C7FEAF8
:10020000655C00F0E2804FEA5454D4EB5555B8BF1A
:100210006D420CDD2C4480EA020281EA030382EA8B
:10022000000083EA010180EA020281EA0303362D1D
:1002300088BF30BD11F0004F4FEA01314FF4801CF0
:100240004CEA113102D0404261EB410113F0004F02
:100250004FEA03334CEA133302D0524263EB4303B9
:1002600094EA050F00F0A780A4F10104D5F1200E57
:100270000DDB02FA0EFC22FA05F2801841F10001B2
:1002800003FA0EF2801843FA05F359410EE0A5F186
:1002900020050EF1200E012A03FA0EFC28BF4CF0B7
:1002A000020C43FA05F3C01851EBE37101F000456D
:1002B00007D54FF0000EDCF1000C7EEB00006EEB7A
:1002C0000101B1F5801F1BD3B1F5001F0CD3490804
:1002D0005FEA30004FEA3C0C04F101044FEA44525B
:1002E00012F5800F80F09A80BCF1004F08BF5FEAE2
:1002F000500C50F1000041EB045141EA050130BDC2
:100300005FEA4C0C404141EB0101013C28BFB1F5D3
:10031000801FE9D291F0000F04BF01460020B1FA1E
:1003200081F308BF2033A3F10B03B3F120020CDAF1
:100330000C3208DD02F1140CC2F10C0201FA0CF0CF
:1003400021FA02F10CE002F11402D8BFC2F1200C34
:1003500001FA02F120FA0CFCDCBF41EA0C019040EA
:10036000E41AA2BF01EB0451294330BD6FEA040433
:100370001F3C1CDA0C340EDC04F11404C4F120021E
:1003800020FA04F001FA02F340EA030021FA04F330
:1003900045EA030130BDC4F10C04C4F1200220FA87
:1003A00002F001FA04F340EA0300294630BD21FAC5
:1003B00004F0294630BD94F0000F83F4801306BF8B
:1003C00081F480110134013D4EE77FEA645C18BF7F
:1003D0007FEA655C29D094EA050F08BF90EA020F16
:1003E00005D054EA000C04BF1946104630BD91EA0E
:1003F000030F1EBF0021002030BD5FEA545C05D111
:100400004000494128BF41F0004130BD14F580044F
:100410003CBF01F5801130BD01F0004545F0FE41C3
:1004200041F470014FF0000030BD7FEA645C1ABFF8
:10043000194610467FEA655C1CBF0B46024650EA2F
:10044000013406BF52EA033591EA030F41F400215B
:1004500030BD00BF90F0000F04BF0021704730B5E1
:100460004FF4806404F132044FF000054FF00001B6
:1004700050E700BF90F0000F04BF0021704730B577
:100480004FF4806404F1320410F0004548BF40424C
:100490004FF000013EE700BF42004FEAE2014FEAA1
:1004A00031014FEA02701FBF12F07F4393F07F4F7C
:1004B00081F06051704732F07F4208BF704793F07F
:1004C0007F4F04BF41F40021704730B54FF4607492
:1004D00001F0004521F000411CE700BF50EA010295
:1004E00008BF704730B54FF000050AE050EA01023E
:1004F00008BF704730B511F0004502D5404261EBAE
:1005000041014FF4806404F132045FEA915C3FF4EE
:10051000D8AE4FF003025FEADC0C18BF03325FEA8B
:10052000DC0C18BF033202EBDC02C2F1200300FA3C
:1005300003FC20FA02F001FA03FE40EA0E0021FA61
:1005400002F11444BDE600BF70B54FF0FF0C4CF44F
:10055000E06C1CEA11541DBF1CEA135594EA0C0F01
:1005600095EA0C0F00F0DEF82C4481EA030621EA3C
:100570004C5123EA4C5350EA013518BF52EA033577
:1005800041F4801143F4801338D0A0FB02CE4FF029
:100590000005E1FB02E506F00042E0FB03E54FF059
:1005A0000006E1FB03569CF0000F18BF4EF0010E51
:1005B000A4F1FF04B6F5007F64F5407404D25FEA4D
:1005C0004E0E6D4146EB060642EAC62141EA555100
:1005D0004FEAC52040EA5E504FEACE2EB4F1FD0C42
:1005E00088BFBCF5E06F1ED8BEF1004F08BF5FEAC0
:1005F000500E50F1000041EB045170BD06F0004672
:1006000046EA010140EA020081EA0301B4EB5C041E
:10061000C2BFD4EB0C0541EA045170BD41F4801116
:100620004FF0000E013C00F3AB8014F1360FDEBF3B
:10063000002001F0004170BDC4F10004203C35DA17
:100640000C341BDC04F11404C4F1200500FA05F39A
:1006500020FA04F001FA05F240EA020001F000423B
:1006600021F0004110EBD37021FA04F642EB0601B1
:100670005EEA430E08BF20EAD37070BDC4F10C04DB
:10068000C4F1200500FA04F320FA05F001FA04F29F
:1006900040EA020001F0004110EBD37041F100018B
:1006A0005EEA430E08BF20EAD37070BDC4F1200596
:1006B00000FA05F24EEA020E20FA04F301FA05F2FE
:1006C00043EA020321FA04F001F0004121FA04F2A6
:1006D00020EA020000EBD3705EEA430E08BF20EA76
:1006E000D37070BD94F0000F0FD101F000464000B0
:1006F00041EB010111F4801F08BF013CF7D041EA32
:10070000060195F0000F18BF704703F00046520035
:1007100043EB030313F4801F08BF013DF7D043EA06
:100720000603704794EA0C0F0CEA135518BF95EABC
:100730000C0F0CD050EA410618BF52EA4306D1D143
:1007400081EA030101F000414FF0000070BD50EA62
:10075000410606BF1046194652EA430619D094EAEC
:100760000C0F02D150EA013613D195EA0C0F05D1D6
:1007700052EA03361CBF104619460AD181EA03012A
:1007800001F0004141F0FE4141F470014FF00000E2
:1007900070BD41F0FE4141F4780170BD70B54FF07D
:1007A000FF0C4CF4E06C1CEA11541DBF1CEA1355FD
:1007B00094EA0C0F95EA0C0F00F0A7F8A4EB0504DF
:1007C00081EA030E52EA03354FEA013100F08880D6
:1007D0004FEA03334FF0805545EA131343EA12639F
:1007E0004FEA022245EA111545EA10654FEA002654
:1007F0000EF000419D4208BF964244F1FD0404F50D
:10080000407402D25B084FEA3202B61A65EB030568
:100810005B084FEA32024FF480104FF4002CB6EB25
:10082000020E75EB030E22BFB61A754640EA0C00A5
:100830005B084FEA3202B6EB020E75EB030E22BFE5
:10084000B61A754640EA5C005B084FEA3202B6EB26
:10085000020E75EB030E22BFB61A754640EA9C00E5
:100860005B084FEA3202B6EB020E75EB030E22BFB5
:10087000B61A754640EADC0055EA060E18D04FEA73
:10088000051545EA16754FEA06164FEAC30343EA13
:1008900052734FEAC2025FEA1C1CC0D111F4801FE0
:1008A0000BD141EA00014FF000004FF0004CB6E7D9
:1008B00011F4801F04BF01430020B4F1FD0C88BF78
:1008C000BCF5E06F3FF6AFAEB5EB030C04BFB6EB83
:1008D000020C5FEA500C50F1000041EB045170BD76
:1008E0000EF0004E4EEA113114EB5C04C2BFD4EBA3
:1008F0000C0541EA045170BD41F480114FF0000E27
:10090000013C90E645EA060E8DE60CEA135594EAA2
:100910000C0F08BF95EA0C0F3FF43BAF94EA0C0FA5
:100920000AD150EA01347FF434AF95EA0C0F7FF41A
:1009300025AF104619462CE795EA0C0F06D152EA6E
:1009400003353FF4FDAE1046194622E750EA410652
:1009500018BF52EA43067FF4C5AE50EA41047FF463
:100960000DAF52EA43057FF4EBAE12E74FF0FF3CC8
:1009700006E000BF4FF0010C02E000BF4FF0010C99
:100980004DF804CD4FEA410C7FEA6C5C4FEA430C12
:1009900018BF7FEA6C5C1BD001B050EA410C0CBF61
:1009A00052EA430C91EA030F02BF90EA020F0020C3
:1009B000704710F1000F91EA030F58BF994208BF2A
:1009C00090422CBFD8176FEAE37040F001007047E7
:1009D0004FEA410C7FEA6C5C02D150EA013C07D13E
:1009E0004FEA430C7FEA6C5CD6D152EA033CD3D089
:1009F0005DF8040B704700BF8446104662468C4683
:100A00001946634600E000BF01B5FFF7B7FF0028B5
:100A100048BF10F1000F01BD4DF808EDFFF7F4FFDE
:100A20000CBF012000205DF808FB00BF4DF808ED69
:100A3000FFF7EAFF34BF012000205DF808FB00BF8C
:100A40004DF808EDFFF7E0FF94BF012000205DF8AE
:100A500008FB00BF4DF808EDFFF7CEFF94BF012063
:100A600000205DF808FB00BF4DF808EDFFF7C4FF5C
:100A700034BF012000205DF808FB00BF4FEA410CA5
:100A80007FEA6C5C02D150EA013C0AD14FEA430C88
:100A90007FEA6C5C02D152EA033C02D14FF00000C5
:100AA00070474FF0010070474FEA4102B2F1E04356
:100AB00024BFB3F5001CDCF1FE5C0DD901F0004C45
:100AC0004FEAC0024CEA5070B2F1004F40EB830095
:100AD00008BF20F00100704711F0804F21D113F1C1
:100AE0003872BCBF01F00040704741F480114FEAFA
:100AF0005252C2F11802C2F1200C10FA0CF320FA83
:100B000002F018BF40F001004FEAC1234FEAD3239F
:100B100003FA0CFC40EA0C0023FA02F34FEA430309
:100B2000CCE77FEA625307D150EA01331EBF4FF092
:100B3000FE4040F44000704701F0004040F0FE40AD
:100B400040F40000704700BF80F0004002E000BFAA
:100B500081F0004142001FBF5FEA410392EA030FA8
:100B60007FEA226C7FEA236C6AD04FEA1262D2EBF2
:100B70001363C1BFD218414048404140B8BF5B42F7
:100B8000192B88BF704710F0004F40F4000020F090
:100B90007F4018BF404211F0004F41F4000121F0A6
:100BA0007F4118BF494292EA030F3FD0A2F10102F0
:100BB00041FA03FC10EB0C00C3F1200301FA03F12E
:100BC00000F0004302D5494260EB4000B0F5000F51
:100BD00013D3B0F1807F06D340084FEA310102F110
:100BE0000102FE2A51D2B1F1004F40EBC25008BFC2
:100BF00020F0010040EA03007047490040EB00008C
:100C0000013A28BFB0F5000FEDD2B0FA80FCACF18C
:100C1000080CB2EB0C0200FA0CF0AABF00EBC250B9
:100C200052421843BCBFD0401843704792F0000FA7
:100C300081F4000106BF80F400000132013BB5E7FA
:100C40004FEA41037FEA226C18BF7FEA236C21D070
:100C500092EA030F04D092F0000F08BF08467047D5
:100C600090EA010F1CBF0020704712F07F4F04D1A3
:100C7000400028BF40F00040704712F100723CBFB6
:100C800000F50000704700F0004343F0FE4040F4E0
:100C9000000070477FEA226216BF08467FEA23639E
:100CA0000146420206BF5FEA412390EA010F40F489
:100CB000800070474FF0000304E000BF10F00043D5
:100CC00048BF40425FEA000C08BF704743F09643BC
:100CD00001464FF000001CE050EA010208BF7047D7
:100CE0004FF000030AE000BF50EA010208BF70475E
:100CF00011F0004302D5404261EB41015FEA010C73
:100D000002BF84460146002043F0B64308BFA3F16A
:100D10008053A3F50003BCFA8CF2083AA3EBC2534C
:100D200010DB01FA02FC634400FA02FCC2F120026B
:100D3000BCF1004F20FA02F243EB020008BF20F0A2
:100D40000100704702F1200201FA02FCC2F1200208
:100D500050EA4C0021FA02F243EB020008BF20EAFD
:100D6000DC7070474FEA4002B2F1FE4F0FD34FF0F4
:100D70009E03B3EB12620DD94FEA002343F0004308
:100D800010F0004F23FA02F018BF404270474FF0B6
:100D90000000704712F1610F01D1420205D110F03D
:100DA000004008BF6FF0004070474FF000007047F0
:100DB0000348044B834202D0034B03B118477047EA
:100DC0006000002060000020000000000548064B85
:100DD0001B1AD90F01EBA301491002D0034B03B139
:100DE00018477047600000206000002000000000ED
:100DF00010B5064C237843B9FFF7DAFF044B13B163
:100E00000448AFF300800123237010BD6000002070
:100E100000000000F843000808B5054B1BB1054968
:100E20000548AFF30080BDE80840FFF7CFBF00BF23
:100E30000000000064000020F8430008F0B587B00F
:100E400002AD002402940394049405941B4B9A6908
:100E500042F004029A619A6902F004020092009A38
:100E60009A6942F008029A619B6903F008030193B2
:100E7000019B134E22464FF47361304601F033FA62
:100E8000012702970394049429460E4801F01AF9A9
:100E9000042302930C4B039304942946304601F03B
:100EA00011F94FF47363029303970494022305939B
:100EB0002946304601F006F907B0F0BD00100240A7
:100EC000000C0140000801400000111000B583B083
:100ED0000A4B5A6942F001025A615B6903F001034F
:100EE0000193019B002211460B2000F093FF0B2081
:100EF00000F0A0FF03B05DF804FB00BF001002404B
:100F000008B502681C4B9A4200D008BD1B4B012259
:100F10001A701B4B1868FFF79DFA11A3D3E9002341
:100F2000FFF712FB10A3D3E90023FFF737FCFFF70D
:100F3000BBFDFFF7B1FA0EA3D3E90023FFF776FD5F
:100F400030B101224FF400710E4801F0CCF9DCE71A
:100F500000224FF400710B4801F0C5F9D5E700BF3E
:100F60006666666666660A400000000000FEAF40E6
:100F70009A9999999999F53F002401407C000020A5
:100F8000B8000020000C01402DE9F04F83B004466A
:100F9000694B1860694B1E6806441E60684F3D68C7
:100FA000451B684B1D60684B1868FFF775FA804653
:100FB0008946664B1878FFF74DFA02460B464FF00C
:100FC000000ADFF88CB15046594602F01BFA02467F
:100FD0000B4640464946FFF7E1FB804689462046DE
:100FE000FFF748FA42464B46FFF7AEFAFFF75CFDC3
:100FF000584B01901860584B1868FFF74DFA80461F
:101000008946564B1878FFF725FA02460B4650469C
:10101000594602F0F7F902460B4640464946FFF7AB
:10102000BDFB804689463046FFF724FA42464B46D0
:10103000FFF78AFAFFF738FD0646494B1860494B1F
:101040001868FFF729FA80468946474B1878FFF75A
:1010500001FA02460B465046594602F0D3F90246C1
:101060000B4640464946FFF799FB8046894628468D
:10107000FFF700FA42464B46FFF766FAFFF714FD0A
:1010800005463A4B186031460198FFF763FD01466B
:101090002846FFF75FFD05463C60354B1868FFF7B3
:1010A0000DFE06462946FFF753FDFFF75BFE04469B
:1010B000304B186029463046FFF74CFDFFF752FED3
:1010C0002D4B1860B4F52F7F03DD2A4B4FF42F72A0
:1010D0001A60284B1B6813F52F7F02DA254B274A2D
:1010E0001A60B0F52F7F03DD234B4FF42F721A6087
:1010F000214B1B6813F52F7F02DA1F4B1F4A1A6022
:101100001D4B1A681B4B1B6882EAE270A0EBE27071
:1011100083EAE371A1EBE371002BD4BF0023012329
:10112000002AD4BF0022012289B280B200F0F0FA76
:1011300003B0BDE8F08F00BF9800002090000020B1
:101140008C00002094000020B40000200600002045
:1011500000002440A8000020B0000020050000206E
:10116000A4000020AC00002004000020A00000200B
:1011700000000020840000208000002044FDFFFFCC
:101180000D4B33F811300D4A32F81120934211D033
:10119000801A4FF47A7101FB00F09B1A90FBF3F078
:1011A000002804DB884203DD4FF47A7000E0002061
:1011B00080B27047002070471044000820440008A7
:1011C000F8B50024264627460EE0651C21460A4B4A
:1011D00033F82500FFF7D4FF00FB04F44FF47A73D3
:1011E00003FB04770644ECB2072CEED90EB1B7FB33
:1011F000F6F63046F8BD00BFB800002008B5FFF78E
:10120000DFFF304B188083B2C3F55A630C332E4A8C
:10121000136016E00023012240F2E911084600F0B5
:1012200077FA2A4B00221A7009222949294800F02E
:101230008DFC264B1B78002BFBD0FFF7C1FF214B09
:101240001880234B5A6840F6E9439A4235D9204B1F
:101250009A6840F60D539A422FD91D4BDA6840F632
:10126000F8439A4229D91A4B1A6940F602539A4216
:1012700023D9174B5A6940F60A539A421DD9144B89
:101280009A6940F611539A4217D9114BDA6940F620
:101290000E539A4211D90E4B1A6A40F614539A42D1
:1012A0000BD90D4B1B68002BB4DD0123002240F24B
:1012B000E911084600F02CFAB3E7034B1868FFF772
:1012C00063FE08BD9C000020880000207C000020F8
:1012D000B8000020B00100208C00002072B6FEE7AC
:1012E00000B585B000230193029303933B483C4A29
:1012F00002604FF480728260037303754FF46022C2
:10130000C26143600923036100F0B8FC002850D19A
:10131000012301930293039301A9304800F032FBAB
:10132000002848D102230193029301A92B4800F021
:1013300029FB002841D103230193029301A92748E7
:1013400000F020FB00283AD10423019302930DEB17
:101350000301224800F016FB002832D10523019337
:10136000029301A91D4800F00DFB60BB0623019309
:10137000029301A9194800F005FB30BB0723019334
:10138000029301A9154800F0FDFA00BB0823019360
:10139000029301A9114800F0F5FAD0B9092301938D
:1013A000029301A90D4800F0EDFAA0B905B05DF86F
:1013B00004FBFFF793FFFFF791FFFFF78FFFFFF7A6
:1013C0008DFFFFF78BFFFFF789FFFFF787FFFFF721
:1013D00085FFFFF783FFFFF781FF00BFB00100200B
:1013E0000024014010B596B0002412941394149474
:1013F00015941094119409940A940B940C940D94E0
:101400000E940F942022214601A801F0C8FF2E4817
:101410002E4B03604460846040F21F33C36004615C
:101420004461846101F0FEFC00283ED14FF48053FA
:10143000129312A9244801F003FE002837D1224854
:1014400001F01CFD002834D100231093119310A942
:101450001D4801F0FDFE00282DD1602309930022D4
:101460000A920B920C920D920E920F9209A91648B5
:1014700001F06CFD08BB042209A9134801F066FDC8
:10148000E8B90023019302930393049305934FF467
:1014900000520692089301A90B4801F013FF80B98E
:1014A000094800F0D7FF16B010BDFFF717FFFFF790
:1014B00015FFFFF713FFFFF711FFFFF70FFFFFF710
:1014C0000DFFFFF70BFF00BF24010020002C01409F
:1014D00000B58FB000230A930B930C930D930893E0
:1014E000099301930293039304930593069307933F
:1014F00022484FF0804202604360836040F21F3216
:10150000C2600361836101F08DFC58BB4FF48053CE
:101510000A930AA9194801F093FD28BB174801F066
:10152000ADFC18BB00230893099308A9134801F0E8
:101530008FFEE8B960230193002202920392059284
:1015400001A90E4801F002FDA0B904220DEB020131
:101550000A4801F0FBFC78B9084800F07BFF0FB0A7
:101560005DF804FBFFF7BAFEFFF7B8FEFFF7B6FE23
:10157000FFF7B4FEFFF7B2FEFFF7B0FEDC0000207D
:1015800010B592B008AC28220021204601F007FFD8
:101590000023039304930593069307930093019309
:1015A00002930223089301220C9210220D920F93B2
:1015B0004FF480131193204600F0C2FFA8B90F2307
:1015C000039302230493002105910691079103A838
:1015D00001F0E8F958B9022300930023029368460A
:1015E00001F06AFA28B912B010BDFFF777FEFFF7D5
:1015F00075FEFFF773FE000008B500F0D1F8FFF7A5
:10160000BFFFFFF71BFCFFF761FCFFF769FEFFF769
:10161000E9FEFFF75DFF1C4C01224FF400612046FC
:1016200000F061FE4FF4967000F0D8F800224FF4FD
:101630000061204600F057FE01224FF480612046F1
:1016400000F051FE01222021204600F04CFE09222C
:101650000E490F4800F07AFA00F020F801210D48F9
:1016600000F03AFE0028F9D00B4B1B78002BFBD082
:10167000094B00221A70FFF7C1FD092203490448F3
:1016800000F064FAF0E700BF000C0140B800002051
:10169000B0010020000801407C00002010B5184C6B
:1016A00001221021204600F01EFE012000F096F8D5
:1016B00000221021204600F016FE012000F08EF8D6
:1016C00001221021204600F00EFE0E4C0021204683
:1016D00001F044FD0421204601F040FD0A4C0021A8
:1016E000204601F03BFD0421204601F037FD074A6A
:1016F0000023536393634FF080425363936310BDA1
:10170000000C014024010020DC000020002C0140DE
:1017100010B40F4C6063A0634FF08040416381635D
:1017200052B940F21F3161635BB94FF0804340F220
:101730001F325A6310BC7047054A40F21F31916353
:10174000F2E74FF0804340F21F329A63F2E700BFA6
:10175000002C014010B504460E4B1A784FF47A73F2
:10176000B3FBF2F30C4A1068B0FBF3F000F070FB2F
:1017700068B90F2C01D901200AE0002221464FF060
:10178000FF3000F047FB054B1C60002000E001200B
:1017900010BD00BF070000200C0000200800002042
:1017A00008B5032000F024FB0F20FFF7D3FF00F063
:1017B000A1FD002008BD0000034A1168034B1B78FF
:1017C0000B441360704700BFE001002007000020B9
:1017D000014B1868704700BFE001002038B504468F
:1017E000FFF7F6FF0546B4F1FF3F02D0044B1B782C
:1017F0001C44FFF7EDFF401BA042FAD338BD00BFE9
:101800000700002008B5436A9A6A12F0500F1ED1F3
:101810009A6A42F400729A621A68926802F460222C
:10182000B2F5602F03D01846FFF76AFB08BD1A7B9C
:10183000002AF8D19A6A22F480729A629A6A12F4A3
:10184000805FF0D19A6A42F001029A62EBE71B6A6C
:101850001B6B9847EAE7704708B5406AFFF7FBFF44
:1018600008BD704770B5044603681E685D6815F0D2
:10187000200F17D016F0020F14D0826A12F0100F4A
:1018800003D1826A42F4007282629A6802F4602292
:10189000B2F5602F33D02046FFF732FB23686FF09C
:1018A00012021A6015F0800F22D016F0040F1FD01C
:1018B000A36A13F0100F03D1A36A43F40053A36289
:1018C0002268936803F4E043B3F5E04F2ED05368E9
:1018D00013F4806F05D1936803F46023B3F5602F90
:1018E00021D0204600F04EFA23686FF00C021A60F7
:1018F00015F0400F02D016F0010F28D170BD227BE9
:10190000002AC8D15A6822F020025A60A36A23F440
:101910008073A362A36A13F4805FBCD1A36A43F00F
:101920000103A362B7E7237B002BDAD1536823F0CE
:1019300080035360A36A23F48053A362A36A13F461
:10194000807FCED1A36A43F00103A362C9E7A36AF3
:1019500043F48033A3622046FFF783FF23686FF0D0
:1019600001021A60CAE7704708B5406A836A43F00B
:1019700040038362C36A43F00403C362FFF7F3FFCB
:1019800008BD000030B482B00022019290F82420FB
:10199000012A00F08F800346012280F824204A6843
:1019A000062A2DD80468606B02EB8202053A4FF0DC
:1019B0001F0C0CFA02FC20EA0C000D6805FA02F27A
:1019C000024362630A68092A38D91C68E06802EB9E
:1019D00042021E3A4FF0070C0CFA02FC20EA0C00FF
:1019E0008D6805FA02F20243E2600A68103A012AA1
:1019F00034D90020002283F8242002B030BC704784
:101A00000C2A0DD80568286B02EB8202233A1F24AA
:101A1000944020EA04000C68944020432863D1E7F6
:101A20000568E86A02EB8202413A1F24944020EAEA
:101A300004000C6894402043E862C3E71C682069F6
:101A400002EB42024FF0070C0CFA02FC20EA0C00F9
:101A50008D6805FA02F202432261C6E71A68164849
:101A6000824205D09A6A42F020029A620120C1E7C0
:101A7000906810F4000F1BD1906840F40000906053
:101A80000A68102A01D00020B4E70C4A12680C49F9
:101A9000A1FB0212920C02EB82025200019202E0C0
:101AA000019A013A0192019A002AF9D10020A1E796
:101AB00000209FE70220A0E7002401400C00002046
:101AC00083DE1B4330B583B00023019303689A681B
:101AD00012F0010F33D104469A6842F001029A6075
:101AE000184B1B68184AA2FB03239B0C019302E0CE
:101AF000019B013B0193019B002BF9D1FFF768FE8D
:101B0000054623689B6813F0010F16D1FFF760FEAE
:101B1000431B022BF5D923689B6813F0010FF0D10A
:101B2000A36A43F01003A362E36A43F00103E36294
:101B3000002384F82430012002E0002000E000208F
:101B400003B030BD0C00002083DE1B43F8B50D460A
:101B500090F8241001295DD004461646012380F830
:101B60002430FFF7AFFF074600284ED1A16A21F4C9
:101B7000706121F0010141F48071A162A36A23F434
:101B80008013A36223685B6813F4806F05D0A36A97
:101B900023F4405343F48053A362A36A13F4805F99
:101BA0002BD0E36A23F00603E362002384F8243099
:101BB000236A194A9A62236A184ADA62236A184A1F
:101BC0001A6323686FF002021A602268936843F474
:101BD00080739360216833462A464C31206A00F0B6
:101BE00095F92268936803F46023B3F5602F07D05A
:101BF000936843F4801393600AE00023E362D4E720
:101C0000936843F4A003936002E0002384F8243037
:101C10003846F8BD0227FBE70518000859180008E8
:101C20006919000838B503689A6812F0010F01D1EC
:101C3000002038BD04469A6822F001029A60FFF73E
:101C4000C7FD054623689B6813F0010F13D0FFF70B
:101C5000BFFD431B022BF5D923689B6813F0010FCE
:101C6000F0D0A36A43F01003A362E36A43F00103D8
:101C7000E3620120DDE70020DBE7000000287BD0E5
:101C800070B50446836A002B4DD02046FFF7CAFF8B
:101C9000A36A13F0100369D1002867D1A26A22F465
:101CA000885222F0020242F00202A2626268E169F6
:101CB0000A43217B42EA4102A568B5F5807F02D044
:101CC000012D36D01D46267D012E35D0266871683F
:101CD00021F46941294371602568AE682749314084
:101CE0001143A960A168B1F5807F01D0012902D11B
:101CF0002369013B1B052568E96A21F470010B4348
:101D0000EB62236899681E4B0B409A4225D0A36A68
:101D100023F0120343F01003A362E36A43F00103CC
:101D2000E362012027E0C36280F8243000F004FB66
:101D3000ABE74FF48075C6E731B9A169013945EACF
:101D4000413141F40065C1E7A16A41F02001A1627F
:101D5000E16A41F00101E162B8E70023E362A36AAE
:101D600023F0030343F00103A36204E0A36A43F0FA
:101D70001003A362012070BD01207047FDF7E1FF51
:101D8000FE0E1FFF70470000002808DB0901C9B2E2
:101D900000F1604000F5614080F80013704700F0EA
:101DA0000F000901C9B2014B1954704714ED00E04E
:101DB00000B500F00700C0F1070CBCF1040F28BF0C
:101DC0004FF0040C031D062B0FD9C31E4FF0FF3E2E
:101DD0000EFA0CF021EA000199400EFA03FE22EA05
:101DE0000E0241EA02005DF804FB0023EEE700006A
:101DF000074AD36823F4E0631B041B0C000200F4C1
:101E0000E060034343F0BF6343F40033D3607047A3
:101E100000ED00E010B50446054BD868C0F3022081
:101E2000FFF7C6FF01462046FFF7AEFF10BD00BF1B
:101E300000ED00E0002807DB00F01F02400901234D
:101E40009340024A42F82030704700BF00E100E0B2
:101E50000138B0F1807F0BD24FF0E0235861054A82
:101E6000F02182F823100020986107221A61704740
:101E70000120704700ED00E030B40124056CAC4057
:101E8000C56B6C60046863604368102B05D0036801
:101E900099600368DA6030BC704703689A60036831
:101EA000D960F8E750B310B402460168144B0B44F4
:101EB0001448A0FB03031B099B001364124BD3635C
:101EC000022382F8213008686FF30D10536894687C
:101ED0002343D468234314692343546923439469F7
:101EE0002343D469234303430B6000209063012301
:101EF00082F8213082F8200010BC70470120704722
:101F0000F8FFFDBFCDCCCCCC0000024038B5044674
:101F100090F82000012831D0012084F8200094F8A6
:101F20002100012804D0002384F82030022038BD8D
:101F3000022084F821000020A0632568286820F092
:101F4000010028602046FFF797FFE36A5BB1226833
:101F5000136843F00E0313602268136843F0010313
:101F600013600020E3E72268136823F00403136082
:101F70002268136843F00A031360EDE70220D6E7F6
:101F800038B5C36B1A6804682568016C04238B405C
:101F9000134235D015F0040F32D0236813F0200F10
:101FA00003D1236823F0040323600368434A934268
:101FB00014D01432934218D01432934217D01432F2
:101FC000934217D01432934217D01432934202D066
:101FD0004FF0806203E04FF4800200E00422384BAF
:101FE0005A60C36A03B1984738BD4022F7E74FF4FF
:101FF0008062F4E74FF48042F1E74FF48022EEE78D
:1020000002238B4013423CD015F0020F39D02368D5
:1020100013F0200F06D1236823F00A032360012365
:1020200080F821300368254A934214D01432934239
:102030001CD0143293421BD0143293421BD0143262
:1020400093421BD01432934202D04FF0007203E04F
:102050004FF4001200E00222194B5A60002380F86E
:102060002030836A002BBFD09847BDE72022F3E7DA
:102070004FF40072F0E74FF40052EDE74FF40032F6
:10208000EAE708238B401342AED015F0080FABD01F
:10209000236823F00E032360026CC16B012303FA53
:1020A00002F24A60836380F82130002380F82030F8
:1020B000036B002B98D0984796E700BF08000240BA
:1020C0000000024070B582B00024A4469EE07C4D22
:1020D000AB4214D00CD8A5F58015AB420FD005F556
:1020E0007025AB420BD0A5F58015AB421FD106E0A1
:1020F000744DAB4203D005F58035AB4217D18B68E8
:10210000A3B1012B0DD04261082410E0CC680EE091
:10211000CC6804340BE0CC68083408E0CC680C349C
:1021200005E00261082402E0002400E00424BEF17E
:10213000FF0F37D806464FEA8C0233680F259540CB
:1021400023EA050304FA02F2134333604B6813F0E9
:10215000805F59D05C4B9A6942F001029A619B6999
:1021600003F001030193019B4FEA9C02951C574B1E
:1021700053F825600CF00305AD000F23AB4026EAB1
:102180000306534B984214D003F58063984279D0EC
:1021900003F58063984277D003F58063984206D0B8
:1021A000042307E0061DACF108029200C5E70323F3
:1021B00000E00023AB4033430232444D45F8223067
:1021C0004B6813F4801F61D0424A936843EA0E03C0
:1021D00093604B6813F4001F5ED03E4AD36843EA15
:1021E0000E03D3604B6813F4003F5BD0394A536849
:1021F00043EA0E0353604B6813F4803F58D0354ACE
:10220000136843EA0E0313600CF1010C0B6833FAF8
:102210000CF253D0012202FA0CF203EA020E32EA67
:102220000303F1D14B68122B3FF651AF122B3FF64F
:102230007EAF01A555F823F0FF2000080D2100080E
:1022400017210008292100082F2100082F2100084C
:102250002F2100082F2100082F2100082F2100081E
:102260002F2100082F2100082F2100082F2100080E
:102270002F2100082F2100082F210008112100081C
:102280001D210008012395E7022393E7114A936873
:1022900023EA0E0393609CE70E4AD36823EA0E03F9
:1022A000D3609FE70B4A536823EA0E035360A2E70B
:1022B000084A136823EA0E031360A5E702B070BD55
:1022C0000000221000003110001002400000014008
:1022D00000080140000401408368194201D0012038
:1022E0007047002070470AB101617047090401611D
:1022F0007047000082B00E4B9A6942F001029A6169
:102300009A6902F001020092009ADA6942F0805262
:10231000DA61DB6903F080530193019B054A53683E
:1023200023F0E06343F00073536002B0704700BFD6
:10233000001002400000014070B588B000230493F3
:1023400005930693079302682A4B9A4201D008B07E
:1023500070BD044603F56C439A6942F400729A61B9
:102360009A6902F400720192019A9A6942F0040299
:102370009A619A6902F004020292029A9A6942F002
:1023800008029A619B6903F008030393039BFE23F1
:1023900004930325059504AE31461748FFF792FED6
:1023A0000495059531461548FFF78CFE1448154BEA
:1023B00003600023436083608022C2604FF4007298
:1023C00002614FF40062426120228261C361FFF723
:1023D00069FD58B90A4B23625C6200221146122043
:1023E000FFF718FD1220FFF725FDB0E7FEF776FF97
:1023F000F0E700BF0024014000080140000C01404C
:102400006C0100200800024082B003680F4A93422A
:1024100004D0B3F1804F0CD002B070470C4B9A69D6
:1024200042F400629A619B6903F400630093009B8D
:10243000F2E703F50433DA6942F00102DA61DB699D
:1024400003F001030193019BE6E700BF002C01406C
:102450000010024030B589B0002304930593069321
:1024600007930368264A934204D0B3F1804F16D0F5
:1024700009B030BD234B9A6942F004029A619B690E
:1024800003F004030193019B4FF440730493022370
:102490000593079304A91C48FFF714FEE8E703F52A
:1024A00004339A6942F004029A619A6902F00402C4
:1024B0000292029A9A6942F008029A619B6903F0BB
:1024C00008030393039B4FF40043049302240594F1
:1024D000079404AD29460C48FFF7F4FD0823049344
:1024E0000594079429460948FFF7ECFD084A53680C
:1024F00023F4407343F0E06343F480735360B7E721
:10250000002C01400010024000080140000C014076
:102510000000014082B0084B1B68084AA2FB03235D
:102520005B0A00FB03F3019300BF019B5A1E01925B
:10253000002BF9D102B070470C000020D34D62107F
:10254000002800F0F18170B582B00446036813F0F2
:10255000010F2CD0994B5B6803F00C03042B1DD0AA
:10256000964B5B6803F00C03082B12D06368B3F53D
:10257000803F41D0002B55D103F1804303F5043354
:102580001A6822F480321A601A6822F480221A60D3
:1025900037E08A4B5B6813F4803FE7D0874B1B68BA
:1025A00013F4003F03D06368002B00F0BF81236861
:1025B00013F0020F75D0814B5B6813F00C0F5FD0E6
:1025C0007E4B5B6803F00C03082B54D02369002B6F
:1025D00000F08A807A4B01221A60FFF7F9F805466D
:1025E000764B1B6813F0020F75D1FFF7F1F8401B13
:1025F0000228F5D903209EE1704A136843F4803322
:102600001360636843B3FFF7E3F805466B4B1B6841
:1026100013F4003FCBD1FFF7DBF8401B6428F5D95A
:10262000032088E1B3F5A02F09D0644B1A6822F487
:1026300080321A601A6822F480221A60E1E703F1FE
:102640008043A3F53C331A6842F480221A601A686A
:1026500042F480321A60D4E7FFF7BAF80546574BC8
:102660001B6813F4003FA2D0FFF7B2F8401B6428A8
:10267000F5D903205FE1514B5B6813F4803FA5D18E
:102680004E4B1B6813F0020F03D02369012B40F05F
:102690004F814A4A136823F0F803616943EAC10392
:1026A0001360236813F0080F33D0A369002B5CD0AC
:1026B000434B0122C3F88024FFF78AF805463F4BBD
:1026C0005B6A13F0020F21D1FFF782F8401B02284A
:1026D000F5D903202FE1394A136823F0F803616923
:1026E00043EAC1031360DCE7354B00221A60FFF7B1
:1026F0006FF80546314B1B6813F0020FD1D0FFF77E
:1027000067F8401B0228F5D9032014E10120FFF7E8
:1027100001FF236813F0040F00F09680274BDB695C
:1027200013F0805F34D1254BDA6942F08052DA61D0
:10273000DB6903F080530193019B0125214B1B684A
:1027400013F4807F26D0E368012B3DD0002B53D1BA
:1027500003F1804303F504331A6A22F001021A627E
:102760001A6A22F004021A6233E0154B0022C3F801
:102770008024FFF72DF80546104B5B6A13F0020F1B
:10278000C7D0FFF725F8401B0228F5D90320D2E077
:102790000025D3E70B4A136843F480731360FFF7F7
:1027A00017F80646074B1B6813F4807FCBD1FFF761
:1027B0000FF8801B6428F5D90320BCE0001002400C
:1027C00000004242007000405F4A136A43F0010378
:1027D0001362E36833B3FEF7FBFF06465A4B1B6AEE
:1027E00013F0020F2FD1FEF7F3FF801B41F2883365
:1027F0009842F3D903209EE0052B09D0524B1A6A68
:1028000022F001021A621A6A22F004021A62E0E758
:102810004D4B1A6A42F004021A621A6A42F001022F
:102820001A62D6E7FEF7D4FF0646474B1B6A13F041
:10283000020F08D0FEF7CCFF801B41F2883398428C
:10284000F3D9032077E0E5B9E369002B72D03E4A63
:10285000526802F00C02082A56D0022B17D03B4BCC
:1028600000221A66FEF7B4FF0446374B1B6813F0CC
:10287000007F47D0FEF7ACFF001B0228F5D90320EC
:1028800059E0314AD36923F08053D361DCE72F4B01
:1028900000221A66FEF79CFF05462B4B1B6813F0BF
:1028A000007F06D0FEF794FF401B0228F5D90320D5
:1028B00041E0236AB3F5803F1AD023494B6823F4E3
:1028C0007413226A606A024313434B601F4B012258
:1028D0001A66FEF77DFF04461B4B1B6813F0007F52
:1028E0000ED1FEF775FF001B0228F5D9032022E068
:1028F000154AD36A23F00F03A1680B43D362DCE7C8
:10290000002018E0002016E0012B16D00E4B5B686B
:1029100003F48031226A914211D103F47013626A88
:1029200093420ED1002006E001207047012002E012
:10293000012000E0002002B070BD0120FBE7012073
:10294000F9E70120F7E700BF001002400000424213
:102950000F4B5B6803F00C02082A01D00D4870474A
:10296000C3F383420C49885C13F4803F0BD0084BBF
:10297000DB6A03F00F03094AD35C064A02FB00F04E
:10298000B0FBF3F07047064B03FB00F0704700BF4D
:102990000010024000127A00404400083044000851
:1029A00000093D0000287BD038B50446036813F0C9
:1029B000020F17D013F0040F04D03B4A536843F4BE
:1029C000E0635360236813F0080F04D0364A53685D
:1029D00043F460535360344A536823F0F003A16812
:1029E0000B435360236813F0010F31D06368012B50
:1029F00020D0022B25D02C4A126812F0020F51D0A1
:102A000029494A6822F0030213434B60FEF7E0FEB7
:102A10000546254B5B6803F00C036268B3EB820F3D
:102A200016D0FEF7D5FE401B41F288339842F0D90C
:102A3000032034E01C4A126812F4003FE0D1012068
:102A40002DE0194A126812F0007FD9D1012026E04A
:102A5000236813F0040F06D0134A536823F4E0638D
:102A6000E1680B435360236813F0080F07D00E4A48
:102A7000536823F46053216943EAC1035360FFF7AD
:102A800067FF094B5B68C3F30313084AD35CD84064
:102A9000074B1860074B1868FEF75CFE002038BD36
:102AA000012070470120FAE700100240504400085E
:102AB0000C0000200800002070B582B004460368B6
:102AC00013F0010F36D0394BDB6913F0805F3FD133
:102AD000364BDA6942F08052DA61DB6903F08053E9
:102AE0000193019B0125324B1B6813F4807F31D089
:102AF0002E4B1B6A13F4407313D0626802F44072C9
:102B00009A420ED0294A136A23F4407029490126BB
:102B1000C1F840640026C1F84064106213F0010F50
:102B20002CD1224A136A23F4407361680B43136269
:102B3000002D34D1236813F0020F35D01B4A53689F
:102B400023F44043A1680B435360002002B070BDE2
:102B50000025C8E7164A136843F480731360FEF734
:102B600037FE0646124B1B6813F4807FC0D1FEF778
:102B70002FFE801B6428F5D90320E7E7FEF728FE27
:102B800006460A4B1B6A13F0020FCAD1FEF720FE5D
:102B9000801B41F288339842F3D90320D6E7D369EA
:102BA00023F08053D361C5E70020CFE70010024037
:102BB000007000400000424230B4026A036A23F011
:102BC000010303624468836923F073030D681D43A6
:102BD00022F002028B681343184A90420BD002F590
:102BE000A052904207D002F58062904203D002F5D5
:102BF0008062904205D123F00803CA681A4322F08C
:102C000004030E4A90420BD002F5A052904207D026
:102C100002F58062904203D002F58062904205D1B5
:102C200024F440744A6922438C69144344608561EA
:102C30004A684263036230BC704700BF002C014009
:102C400030B4036A026A22F4807202624268C46984
:102C500024F0730C0C6844EA0C0523F400738C68B0
:102C600043EA0423124CA0420BD0124CA0420FD0D6
:102C700004F58064A0420BD004F58064A0420FD11B
:102C800006E023F40063CC6843EA042323F4806362
:102C900022F440524C6942EA04128C6942EA04125E
:102CA0004260C5614A68C263036230BC704700BFBE
:102CB000002C01400040014030B4036A026A22F453
:102CC000805202624468C26922F4E6420D6842EA18
:102CD000052223F400538D6843EA05330D4DA842C5
:102CE0000BD005F5A055A84207D005F58065A84290
:102CF00003D005F58065A84204D124F480444D69D1
:102D000044EA85144460C2614A680264036230BCCC
:102D1000704700BF002C014010B4036A046A24F01D
:102D200001040462846924F0F00C4CEA021223F0DE
:102D30000A030B438261036210BC704710B4036A3C
:102D4000046A24F010040462846924F4704C4CEA90
:102D5000023223F0A00343EA01138261036210BC34
:102D60007047836823F070030B4343F007038360CD
:102D70007047704703682A4A90420AD0B0F1804FEA
:102D800007D0A2F59432904203D002F580629042BF
:102D900003D123F070034A681343214A904216D0AE
:102DA000B0F1804F13D0A2F5943290420FD002F5CB
:102DB000806290420BD002F59C32904207D002F51F
:102DC0008062904203D002F58062904203D123F4E6
:102DD0004073CA68134323F080034A6913430360B6
:102DE0008B68C3620B6883620D4B98420BD003F56E
:102DF000A053984207D003F58063984203D003F5AF
:102E00008063984201D10B69036301234361036925
:102E100013F0010F03D0036923F00103036170472E
:102E2000002C014040B310B5044690F83D30F3B19A
:102E3000022384F83D30214651F8040BFFF79AFF36
:102E4000012384F8463084F83E3084F83F3084F81B
:102E5000403084F8413084F8423084F8433084F8BC
:102E6000443084F8453084F83D30002010BD80F8AF
:102E70003C30FFF7C9FADBE70120704740B310B5DB
:102E8000044690F83D30F3B1022384F83D302146EA
:102E900051F8040BFFF76EFF012384F8463084F8E5
:102EA0003E3084F83F3084F8403084F8413084F874
:102EB000423084F8433084F8443084F8453084F854
:102EC0003D30002010BD80F83C30FFF752FFDBE7BB
:102ED0000120704730B4036A026A22F010020262D5
:102EE0004268846924F4E64C0C684CEA042423F01C
:102EF00020038D6843EA0513124DA8420BD0124DF2
:102F0000A8420FD005F58065A8420BD005F5806575
:102F1000A8420FD106E023F08003CD6843EA0513F1
:102F200023F0400322F440624D6942EA85028D6934
:102F300042EA8502426084614A688263036230BC6F
:102F4000704700BF002C01400040014038B590F8A8
:102F50003C30012B66D004460D46012380F83C30FE
:102F60000C2A5AD8DFE802F0075959591B59595908
:102F70003059595944000068FFF71EFE22689369D2
:102F800043F0080393612268936923F0040393617B
:102F90002268936929690B43936100203EE0006831
:102FA000FFF798FF2268936943F4006393612268F6
:102FB000936923F48063936122689369296943EAE2
:102FC00001239361002029E00068FFF739FE2268A1
:102FD000D36943F00803D3612268D36923F0040363
:102FE000D3612268D36929690B43D361002015E0BE
:102FF0000068FFF761FE2268D36943F40063D36180
:103000002268D36923F48063D3612268D369296974
:1030100043EA0123D361002000E00120002384F86B
:103020003C3038BD0220FCE710B4846824F47F4CA7
:1030300042EA03220A4342EA0C02826010BC704753
:1030400090F83C30012B78D010B50446012380F86D
:103050003C30022380F83D300268936823F47F43BC
:1030600023F0770393600B68602B4CD023D8402B60
:1030700054D011D8202B03D00AD80BB1102B05D176
:1030800019462068FFF76DFE002028E0012026E0A9
:10309000302BF5D0012022E0502B0AD1CA684968B4
:1030A0000068FFF739FE50212068FFF75AFE002024
:1030B00015E0012013E0B3F5805F3AD0B3F5005F6F
:1030C00014D0702B37D1CB684A6889680068FFF745
:1030D000ABFF2268936843F07703936000200123DD
:1030E00084F83D30002384F83C3010BDCB684A683A
:1030F00089680068FFF798FF2268936843F480436B
:1031000093600020EBE7CA6849680068FFF716FE85
:1031100060212068FFF725FE0020E0E7CA684968C3
:103120000068FFF7F9FD40212068FFF71AFE002034
:10313000D5E70020D3E70120D1E70220704701F056
:103140001F014FF0010C0CFA01FC036A23EA0C0387
:103150000362036A8A4013430362704710B5044652
:10316000084600293DD194F83E30013B18BF0123A9
:10317000002B67D100284AD1022384F83E30012277
:1031800001462068FFF7DBFF2368304A93420BD0EB
:1031900002F5A052934207D002F58062934203D019
:1031A00002F58062934203D15A6C42F400425A64A1
:1031B0002368264A93423AD0B3F1804F37D0A2F524
:1031C0009432934233D002F5806293422FD002F5BD
:1031D0009C3293422BD01A6842F001021A60002000
:1031E0002FE0042907D008290BD094F84130013B87
:1031F00018BF0123BCE794F83F30013B18BF0123FF
:10320000B6E794F84030013B18BF0123B0E704282B
:1032100005D0082807D0022384F84130AFE7022305
:1032200084F83F30ABE7022384F84030A7E79A6880
:1032300002F00702062A07D01A6842F001021A605B
:10324000002010BD0120FCE70020FAE7002C01401F
:1032500090F83C20012A30D010B40346012280F8B7
:103260003C20022280F83D2002685068946820F0DB
:10327000700C086840EA0C0050601A6810488242DE
:103280000ED0B2F1804F0BD0A0F59430824207D01F
:1032900000F58060824203D000F59C30824204D168
:1032A00024F08004496821439160012283F83D2085
:1032B000002083F83C0010BC70470220704700BF1C
:1032C000002C0140024690F83C30012B21D0012314
:1032D00080F83C30CB6823F440738868034323F4C0
:1032E00080634868034323F400630868034323F4BE
:1032F00080530869034323F400534869034323F4CC
:103300008043C9690B4311684B64002082F83C007C
:10331000704702207047FEE7FEE7FEE7FEE7FEE7A4
:1033200070477047704708B5FEF746FA08BD0000C1
:1033300008B50248FEF724FE08BD00BF6C0100205E
:1033400008B50248FEF78EFA08BD00BFB0010020A4
:1033500070470000FFF7FCFF0B480C490C4A0023A4
:1033600002E0D458C4500433C4188C42F9D3094A3B
:10337000094C002301E013600432A242FBD300F0A9
:103380001DF8FEF739F970470000002060000020AA
:1033900078440008600000201C030020FEE703467C
:1033A0000244934200D1704703F8011BF9E7000083
:1033B000014B1868704700BF1000002070B5002650
:1033C0000C4D0D4B5B1B9C10A64209D1002601F051
:1033D00013F80A4D0A4B5B1B9C10A64205D170BD29
:1033E00055F8043B98470136EEE755F8043B9847FB
:1033F0000136F2E770440008704400087044000889
:10340000744400082DE9F84314461D468046894659
:1034100000F06EF8224606460F462B462046294607
:10342000FDF72CFB78B90022002340464946FDF702
:10343000F3FAD8B10022002320462946FDF7ECFA22
:1034400028B10026254F30463946BDE8F88320468E
:10345000294600F045F80028F5D0204629460022EC
:103460000023FDF7E3FA0028EDD02CE03046394682
:1034700000F036F8A0B10022002330463946FDF7AF
:10348000CBFA0028DFD04046494600F029F8002852
:10349000D9D02046294600F023F80028D3D012E0E6
:1034A0004046494600F01CF80028E4D02046294652
:1034B00000F016F80028DED032463B46304639464A
:1034C000FDF7DCFA20B9FFF773FF22230360BAE7A8
:1034D000FFF76EFF21230360B5E700BF0000F03F58
:1034E00041F0004000F58010C00F70470000000060
:1034F0002DE9F04F23F0004B0D4652EA0B019146A7
:103500009A46044693B010D12319684885F40022E6
:1035100052419942904122D24A465346204629467A
:10352000FCF75CFE13B0BDE8F08F9846604B174681
:1035300025F000429A422E460090029214D9009B38
:1035400006F1404606F580161E43E5D14B46574925
:10355000DB188AF4002252419E429141DCD30020C4
:10356000544913B0BDE8F08F13D09B45E7D8029BB8
:1035700052D0002E15DB002F40F087804D4A934536
:1035800040F00784B8F1000FC0F2DA8420462946E3
:10359000C8E70028C0D19345BED800F00A84029B3A
:1035A000E7E7454A934500F29083444A934500F289
:1035B0009183002F40F0B983B8F1804F00F0CB84A5
:1035C00020462946049300F077FD009A049B002AC8
:1035D00038D0F20F013A52EA070C63D00024013FC1
:1035E000174314BF334D364DBBF1844FCDE9084529
:1035F0006AD9344B029A9B45304B40F20F849A4271
:1036000000F2B984B8F1000FC0F2B984002013B001
:10361000BDE8F04F00F0F6BD002F90D1029B009A5C
:1036200003F1404303F58013134398D0234B029AD0
:103630009A4240F25F84B8F1000FC0F2D784484646
:1036400051466FE71B4A26F0404C944502D0029A3F
:10365000002ABED1B8F1000FC0F24484002EBFF69C
:1036600061AF029B03F1404A0AF5801A5AEA070A41
:1036700040F0798402460B4610461946FCF7ACFD33
:1036800002460B46FDF78AF84CE7002720462946FC
:10369000049300F011FD009A049B002AD2D0F20F8F
:1036A000013A9BE722462B46E6E700BF0000F0FF09
:1036B0000000F07F0000F03FFFFF3F43FFFFEF3FC0
:1036C0000000F0BF0000F043CD4A3240002A40F035
:1036D0000284CC4B0022FCF737FF6FF034040B461A
:1036E0001A15A2F2FF3202EB0408C74AC3F3130310
:1036F00043F07F54934244F4401407DDC34A93429D
:1037000040F3438408F10108A4F58014002200234B
:1037100000260025BE4FCDE90C23CDE90667CDE993
:103720001023DDE906232146CDE90401FCF754FD11
:10373000DDE9062306460F46DDE90401FCF74EFDF0
:1037400002460B460020B249FDF728F88C46834616
:1037500063465A4630463946CDE90ABCFCF7F4FECA
:1037600083468C46CDE902BCDDE902BC00204FF067
:10377000000B641044F0005404F50023591904466A
:103780000D4602460B4658466146CDE90EBCCDE9D2
:103790000001FCF7D9FE02460B4630463946FCF7DD
:1037A0001BFDDDE9062306460F4620462946FCF7A9
:1037B00013FD02460B46DDE90401FCF70DFDDDE9D2
:1037C0000023FCF7C1FE02460B4630463946FCF7A3
:1037D00003FDDDE90A23FCF7B7FEDDE902BCCDE914
:1037E0000401634661465A465846FCF7ADFE72A393
:1037F000D3E9002304460D46FCF7A6FE70A3D3E9E7
:103800000023FCF7EBFC22462B46FCF79DFE6EA343
:10381000D3E90023FCF7E2FC22462B46FCF794FE9A
:103820006BA3D3E90023FCF7D9FC22462B46FCF717
:103830008BFE69A3D3E90023FCF7D0FC22462B467C
:10384000FCF782FE66A3D3E90023FCF7C7FC2246FF
:1038500006460F462B4620462946FCF775FE0246D3
:103860000B4630463946FCF76FFEDDE9006704463B
:103870000D46DDE9020132463B46FCF7AFFCDDE9CF
:103880000423FCF761FE22462B46FCF7A7FC3246D8
:103890003B46CDE9060130463946FCF755FE00228D
:1038A0005C4B04460D46FCF799FCDDE90623FCF76A
:1038B00095FCDDE90EBC0F46DDE900015A463B46AA
:1038C000CDE90ABC5E46FCF73FFE0022CDE90001CF
:1038D000504B30463946FCF77FFC22462B46FCF71E
:1038E0007BFC02460B46DDE90601FCF775FCDDE9D1
:1038F0000223FCF729FE324604460D46DDE90401A9
:103900003B46FCF721FE02460B4620462946FCF7C3
:1039100065FC06460F46DDE9000132463B46FCF7F2
:103920005DFCDDE90ABC30A3D3E900235846CDE9AC
:1039300002BC0D465C46FCF707FEDDE90023CDE93D
:10394000000120462946FCF747FC02460B4630465C
:103950003946FCF741FC26A3D3E90023FCF7F4FD2C
:1039600002460B462046294614461D4622A3D3E9AB
:103970000023FCF7E9FD02460B4620462946FCF7EA
:103980002DFCDDE91023FCF729FC044640460D46DA
:10399000FCF770FD06460F46DDE9000122462B4686
:1039A000FCF71CFCDDE90C23FCF718FC32463B4617
:1039B00032E000BFAFF30080EF4E454A287ECA3F99
:1039C00065DBC9934A86CD3F01411DA96074D13F93
:1039D0004D268F515555D53FFFAB6FDBB66DDB3FA5
:1039E000033333333333E33F000000E009C7EE3FD6
:1039F000FD033ADC09C7EE3FF5015B14E02F3EBE44
:103A00000000F07F000040438E98030079B60B0061
:103A10000000F03F00000840FCF7E0FBDDE902BCDD
:103A200032465E463B4658460F46FCF7D5FBDDE97D
:103A30000C23FCF7D1FBDDE90023FCF7CDFB0246AC
:103A40000B4620462946FCF7C7FB0023CDE9009A28
:103A50000093DDE90034CDE904011A46CDE90234D2
:103A6000484623465146FCF7B7FB32463B46FCF737
:103A70006BFD4A4604460D46DDE904015346FCF75A
:103A800063FD02460B4620462946FCF7A7FBDDE90D
:103A9000022304460D4630463946CDE90245FCF77F
:103AA00053FD06460F46204629463B463246FCF764
:103AB00095FBD54B044699420D46884640F3498113
:103AC00001F13F4303F5E003034340F07482BCA3DC
:103AD000D3E90023DDE90201FCF780FB02460B4637
:103AE0002046294614461D4632463B46FCF774FBE9
:103AF00002460B4620462946FCF7B6FF002840F058
:103B00005A824FF4007300204344C3F30A52BF4C5F
:103B1000A2F2FF321441C3F3130AC2F1140204EA01
:103B200003014AF4801A0B464AFA02FAB8F1000F70
:103B3000024639463046B8BFCAF1000AFCF74CFBD2
:103B400006460F46DDE9020132463B46FCF746FBDE
:103B50000D464FEA0A5B00249BA3D3E900232046CD
:103B60002946FCF7F1FC3246804689463B46204612
:103B70002946FCF731FB02460B46DDE90201FCF762
:103B80002BFB93A3D3E90023FCF7DEFC02460B4694
:103B90002046294614461D468FA3D3E90023FCF78F
:103BA000D3FC02460B4620462946FCF717FB064687
:103BB0000F4632463B4640464946FCF70FFB42461D
:103BC0004B4604460D46FCF707FB02460B463046C3
:103BD0003946FCF701FB2246804689462B462046A3
:103BE0002946FCF7B1FC7EA3D3E9002306460F4625
:103BF000FCF7AAFC7CA3D3E90023FCF7EDFA3246DC
:103C00003B46FCF7A1FC7AA3D3E90023FCF7E6FAD4
:103C100032463B46FCF798FC77A3D3E90023FCF738
:103C2000DBFA32463B46FCF78FFC75A3D3E9002351
:103C3000FCF7D4FA32463B46FCF786FC02460B46BC
:103C400020462946FCF7C8FA06460F4632463B4650
:103C500020462946FCF778FC02460B46304639469A
:103C600016461F4600224FF08043FCF7B5FA024685
:103C70000B4630463946FCF791FD424606460F4654
:103C80004B4620462946FCF75FFC42464B46FCF774
:103C9000A5FA02460B4630463946FCF79DFA224605
:103CA0002B46FCF799FA02460B4600205849FCF7D0
:103CB00093FA0C465C44B4F5801FC0F2788121462B
:103CC000DDE90823FCF740FC2CE4002F00F08B8199
:103CD0000227DBE44FEA2B52A2F2FF32142A40F310
:103CE0001681C2F1340227FA02F101FA02F2BA4255
:103CF00000F08D81CFB9B8F1804F049300F02B8193
:103D00002046294600F0D8F9009B002B7FF4CAAC6E
:103D10003F4A26F04047974200F09E81029A049B5A
:103D2000002A00F0DA80002753E420462946049355
:103D300000F0C2F9009B002B7FF4B4AC344A26F0AB
:103D400040479742EAD1B8F1000FC0F27C810027CA
:103D500087E4DFF8C0C021F00043634540F2E8800B
:103D60002D4B0B4403430AD132463B46FCF734FA51
:103D7000DDE90223FCF76EFE00283FF4C2AEDDE968
:103D8000080100220023FCF751FE003818BF012073
:103D90003DE4B8F1804F00F0DE80A2F5801290453E
:103DA0007FF40EAC2046294613B0BDE8F04F00F07A
:103DB00035BA002F7FF4B0AB38E400BFAFF300801A
:103DC000FE822B654715973C00000000432EE63F1E
:103DD000EF39FAFE422EE63F396CA80C615C20BE3A
:103DE000D0A4BE726937663EF16BD2C541BDBB3E01
:103DF0002CDE25AF6A56113F93BDBE166CC1663FDF
:103E00003E5555555555C53FFFFF8F400000F0FF0B
:103E10000000F03FFFCB904000346F3F9A42C0F06B
:103E2000D480029AA04B9A424FF0000200F2E28046
:103E30009D4BFCF7D1F990A3D3E9002304460D462E
:103E4000FCF782FB8EA3D3E9002306460F462046EB
:103E50002946FCF779FB0022CDE90001934B20466F
:103E60002946FCF771FB02460B4687A1D1E9000108
:103E7000FCF7B2F922462B46FCF766FB02460B46DE
:103E800000208B49FCF7A8F922462B46CDE9020118
:103E900020462946FCF758FB02460B46DDE90201A5
:103EA000FCF752FB7AA3D3E90023FCF74DFB024653
:103EB0000B46DDE90001FCF78FF904460D4630465C
:103EC000394622462B46FCF789F9002032463B460C
:103ED00006460F46B1E5002402E4B8F1000FBFF634
:103EE00036AF002702460B4600206F49FCF756FC10
:103EF000FFF7B4BBB8F1000F4FF000004FF0000126
:103F0000BFF610AB48460AF10041FFF70BBB002F8C
:103F10007FF40BAFC2F114024BFA02F101FA02F284
:103F20005A45614A7BD093453FF42CABFFF744BB25
:103F30005F4A93427FD8DDE90023934692460AE622
:103F400022462B4600205849FCF728FCFFF7EABA26
:103F5000B8F1804F47D122462B4620462946FCF730
:103F6000F3FAFFF7DFBA012F7FF4DCAA01F1004377
:103F70001946FFF7D7BAB8F1000F7FF747AB00201B
:103F800013B0BDE8F04F00F043B90022494B4FF4A5
:103F90008025CDE9062340A3D3E90023CDE90C23F6
:103FA0003FA3D3E90023CDE91023FFF7BABB524664
:103FB00000F086F884E60022DDE908010023FCF722
:103FC00035FD003818BF0120DAE70022DDE90801DD
:103FD0000023FCF72BFD003818BF0120B8F1000FBB
:103FE000BFF615ABCCE70227FFF7EABA00200021A5
:103FF000FFF798BA0023DDE90801FCF717FD003848
:1040000018BF0120B8F1000FBADCFFF700BB002F8A
:104010009ED001F00101C1F10207FFF737BB9345C4
:104020003FF4B0AAB8F1804F95D001F00101C1F181
:104030000207FFF7C5BA4FF480121B15A3F2FE3337
:1040400042FA03F35FE502460B4600201649FCF7EF
:10405000A5FB009FFFF705BBB8F1000FBFF677AED9
:1040600002460B4600201049FCF798FB0027FFF79B
:10407000F8BA00BFAFF30080000000604715F73FBB
:1040800044DF5DF80BAE543E555555555555D53F5B
:10409000FE822B654715F73F0000004003B8E23F62
:1040A00006D0CF43EBFD4C3E0000F03F0000D03F78
:1040B0000000E03F0000F83F21F000431946704740
:1040C0002DE9F0411646C1F30A52074688460B46D1
:1040D0006ABB21F00043034327D0334B0022FCF797
:1040E00033FA324B07469E4288463CDB0B46C1F30F
:1040F0000A52363A4CF250318E4221DC164440F2DC
:10410000FE7296421CDC002E26DC16F1350F31DBE8
:1041100023F0FF4121F4E001363641EA0655002242
:1041200038462946224BFCF70FFABDE8F08140F2F1
:10413000FF7C6245DED10246FCF750F8BDE8F08115
:10414000454615A3D3E9002363F31E052946194804
:10415000FCF7FAF9BDE8F0816FF31E53384643EAE5
:104160000651BDE8F0810EA3D3E90023FCF7ECF97A
:10417000BDE8F08108F0004444F0D27141F4B73159
:1041800007A3D3E900230C4841F01F01FCF7DCF939
:10419000CBE700BFAFF300809C7500883CE4377E1E
:1041A00059F3F8C21F6EA50100005043B03CFFFF59
:1041B0000000903C9C75008859F3F8C2D0B50646C3
:1041C0000F461446FFF7F4F80346394630461C60A4
:1041D000D0BD00BF00B583B080B1104603F10041EF
:1041E000CDE9000110461946DDE90023FCF7ACF9E2
:1041F000222203B05DF804EBFFF7E0BF104619463A
:10420000EEE700BF00224FF08053FFF7E3BF00BF8F
:1042100000224FF0E043FFF7DDBF00BF734A2DE9F6
:10422000F84F8A4306460F4600F0AC8000290C4642
:10423000034655DD081562D0C4F31302C107A0F28E
:10424000FF3742F4801203D4520002EBD3725B00BA
:10425000002616244FF40011B446520002EBD3722C
:104260007F105B000CEB010090424FEAD3754FEAE0
:10427000430303DC00EB010C121A0E44013C05EB76
:1042800042024FEA5101EDD120254FF00040A046F7
:104290000AE043D0510001EBD371013D0A464FEAD9
:1042A00043034FEA500045D0624500EB080EF0DDB5
:1042B000BEF1000F0EEB00080CDBE146A2EB0C0197
:1042C000CC469E4588BF01F1FF314900A3EB0E03A8
:1042D0000444E0E7B8F1000FEFDB0CF10109EDE772
:1042E00021F00042024344D000296ED1DA0A153C85
:1042F0005B05002AFAD0D602204673D41446002269
:104300006400E502114602F10102F9D5C2F120056F
:1043100023FA05F52C439340401A8DE79E4502D9B8
:104320004FEA4C01B7E7BEF1000F0EEB000822DBAD
:104330000021CBE7194312D0DFF8B4A0DFF8B4B006
:10434000DAE90001DBE90023FBF746FFDAE900893F
:1043500002460B4640464946FCF772FBE0B9650849
:10436000731003F17F5303F5001303EB075145EA84
:10437000C670BDE8F88FB8F1000FD9DB00210CF151
:10438000010CA3E702460B46FCF7DEF832463B463B
:10439000FBF724FFBDE8F88FB4F1FF3FDAE9000135
:1043A000DBE900231AD0DAE90089FBF717FF0246A0
:1043B0000B4640464946FCF739FB88B1A31C04F183
:1043C000020508BF01366D08CAE702460B46FBF737
:1043D00003FF02460B46FCF7E1F9CAE70136BFE7E7
:1043E0000134BCE74FF0FF31144695E70000F07F41
:1043F0006844000860440008F8B500BFF8BC08BC79
:104400009E467047F8B500BFF8BC08BC9E46704792
:10441000310F5B0F430F4E0F580F600F5C0F630F90
:10442000500A49099209250B3D0A860A8209FC07B0
:104430000102030405060708090A0B0C0D0E0F10F4
:1044400002030405060708090A0B0C0D0E0F1010D5
:104450000000000000000000010203040607080934
:1044600059F3F8C21F6EA501000000000000F03FE4
:04447000190E000819
:04447400F10D00083E
:10447800E9010000010101011000000000127A00AA
:104488001400002000000000E40100204C0200207D
:10449800B40200200000000000000000000000003E
:1044A8000000000000000000000000000000000004
:1044B80000000000000000000000000000000000F4
:1044C80000000000000000000000000000000000E4
:040000050800335567
:00000001FF
