:020000040800F2
:100000000020002031340008F3330008F5330008E5
:10001000F7330008F9330008FB3300080000000044
:10002000000000000000000000000000FD33000898
:10003000FF3300080000000001340008033400080A
:1000400079340008793400087934000879340008DC
:1000500079340008793400087934000879340008CC
:100060007934000879340008793400080D34000828
:1000700079340008793400087934000879340008AC
:1000800079340008793400081D34000800000000AD
:1000900000000000000000000000000079340008AB
:1000A000793400087934000879340008793400087C
:1000B000793400087934000879340008793400086C
:1000C00079340008000000000000000079340008C6
:1000D000793400087934000879340008793400084C
:1000E00079340008793400087934000800000000F1
:1000F0000000000000000000000000000000000000
:1001000000000000000000000000000000000000EF
:100110000000000000000000793400087934000875
:1001200000000000000000000000000000000000CF
:1001300000000000000000000000000000000000BF
:1001400000000000000000000000000000000000AF
:10015000000000000000000000000000000000009F
:10016000000000000000000000000000000000008F
:10017000000000000000000000000000000000007F
:10018000000000000000000000000000000000006F
:10019000000000000000000000000000000000005F
:1001A000000000000000000000000000000000004F
:1001B000000000000000000000000000000000003F
:1001C0000000000000000000000000005FF808F1DF
:1001D00081F0004102E000BF83F0004330B54FEAF8
:1001E00041044FEA430594EA050F08BF90EA020F65
:1001F0001FBF54EA000C55EA020C7FEA645C7FEAF8
:10020000655C00F0E2804FEA5454D4EB5555B8BF1A
:100210006D420CDD2C4480EA020281EA030382EA8B
:10022000000083EA010180EA020281EA0303362D1D
:1002300088BF30BD11F0004F4FEA01314FF4801CF0
:100240004CEA113102D0404261EB410113F0004F02
:100250004FEA03334CEA133302D0524263EB4303B9
:1002600094EA050F00F0A780A4F10104D5F1200E57
:100270000DDB02FA0EFC22FA05F2801841F10001B2
:1002800003FA0EF2801843FA05F359410EE0A5F186
:1002900020050EF1200E012A03FA0EFC28BF4CF0B7
:1002A000020C43FA05F3C01851EBE37101F000456D
:1002B00007D54FF0000EDCF1000C7EEB00006EEB7A
:1002C0000101B1F5801F1BD3B1F5001F0CD3490804
:1002D0005FEA30004FEA3C0C04F101044FEA44525B
:1002E00012F5800F80F09A80BCF1004F08BF5FEAE2
:1002F000500C50F1000041EB045141EA050130BDC2
:100300005FEA4C0C404141EB0101013C28BFB1F5D3
:10031000801FE9D291F0000F04BF01460020B1FA1E
:1003200081F308BF2033A3F10B03B3F120020CDAF1
:100330000C3208DD02F1140CC2F10C0201FA0CF0CF
:1003400021FA02F10CE002F11402D8BFC2F1200C34
:1003500001FA02F120FA0CFCDCBF41EA0C019040EA
:10036000E41AA2BF01EB0451294330BD6FEA040433
:100370001F3C1CDA0C340EDC04F11404C4F120021E
:1003800020FA04F001FA02F340EA030021FA04F330
:1003900045EA030130BDC4F10C04C4F1200220FA87
:1003A00002F001FA04F340EA0300294630BD21FAC5
:1003B00004F0294630BD94F0000F83F4801306BF8B
:1003C00081F480110134013D4EE77FEA645C18BF7F
:1003D0007FEA655C29D094EA050F08BF90EA020F16
:1003E00005D054EA000C04BF1946104630BD91EA0E
:1003F000030F1EBF0021002030BD5FEA545C05D111
:100400004000494128BF41F0004130BD14F580044F
:100410003CBF01F5801130BD01F0004545F0FE41C3
:1004200041F470014FF0000030BD7FEA645C1ABFF8
:10043000194610467FEA655C1CBF0B46024650EA2F
:10044000013406BF52EA033591EA030F41F400215B
:1004500030BD00BF90F0000F04BF0021704730B5E1
:100460004FF4806404F132044FF000054FF00001B6
:1004700050E700BF90F0000F04BF0021704730B577
:100480004FF4806404F1320410F0004548BF40424C
:100490004FF000013EE700BF42004FEAE2014FEAA1
:1004A00031014FEA02701FBF12F07F4393F07F4F7C
:1004B00081F06051704732F07F4208BF704793F07F
:1004C0007F4F04BF41F40021704730B54FF4607492
:1004D00001F0004521F000411CE700BF50EA010295
:1004E00008BF704730B54FF000050AE050EA01023E
:1004F00008BF704730B511F0004502D5404261EBAE
:1005000041014FF4806404F132045FEA915C3FF4EE
:10051000D8AE4FF003025FEADC0C18BF03325FEA8B
:10052000DC0C18BF033202EBDC02C2F1200300FA3C
:1005300003FC20FA02F001FA03FE40EA0E0021FA61
:1005400002F11444BDE600BF70B54FF0FF0C4CF44F
:10055000E06C1CEA11541DBF1CEA135594EA0C0F01
:1005600095EA0C0F00F0DEF82C4481EA030621EA3C
:100570004C5123EA4C5350EA013518BF52EA033577
:1005800041F4801143F4801338D0A0FB02CE4FF029
:100590000005E1FB02E506F00042E0FB03E54FF059
:1005A0000006E1FB03569CF0000F18BF4EF0010E51
:1005B000A4F1FF04B6F5007F64F5407404D25FEA4D
:1005C0004E0E6D4146EB060642EAC62141EA555100
:1005D0004FEAC52040EA5E504FEACE2EB4F1FD0C42
:1005E00088BFBCF5E06F1ED8BEF1004F08BF5FEAC0
:1005F000500E50F1000041EB045170BD06F0004672
:1006000046EA010140EA020081EA0301B4EB5C041E
:10061000C2BFD4EB0C0541EA045170BD41F4801116
:100620004FF0000E013C00F3AB8014F1360FDEBF3B
:10063000002001F0004170BDC4F10004203C35DA17
:100640000C341BDC04F11404C4F1200500FA05F39A
:1006500020FA04F001FA05F240EA020001F000423B
:1006600021F0004110EBD37021FA04F642EB0601B1
:100670005EEA430E08BF20EAD37070BDC4F10C04DB
:10068000C4F1200500FA04F320FA05F001FA04F29F
:1006900040EA020001F0004110EBD37041F100018B
:1006A0005EEA430E08BF20EAD37070BDC4F1200596
:1006B00000FA05F24EEA020E20FA04F301FA05F2FE
:1006C00043EA020321FA04F001F0004121FA04F2A6
:1006D00020EA020000EBD3705EEA430E08BF20EA76
:1006E000D37070BD94F0000F0FD101F000464000B0
:1006F00041EB010111F4801F08BF013CF7D041EA32
:10070000060195F0000F18BF704703F00046520035
:1007100043EB030313F4801F08BF013DF7D043EA06
:100720000603704794EA0C0F0CEA135518BF95EABC
:100730000C0F0CD050EA410618BF52EA4306D1D143
:1007400081EA030101F000414FF0000070BD50EA62
:10075000410606BF1046194652EA430619D094EAEC
:100760000C0F02D150EA013613D195EA0C0F05D1D6
:1007700052EA03361CBF104619460AD181EA03012A
:1007800001F0004141F0FE4141F470014FF00000E2
:1007900070BD41F0FE4141F4780170BD70B54FF07D
:1007A000FF0C4CF4E06C1CEA11541DBF1CEA1355FD
:1007B00094EA0C0F95EA0C0F00F0A7F8A4EB0504DF
:1007C00081EA030E52EA03354FEA013100F08880D6
:1007D0004FEA03334FF0805545EA131343EA12639F
:1007E0004FEA022245EA111545EA10654FEA002654
:1007F0000EF000419D4208BF964244F1FD0404F50D
:10080000407402D25B084FEA3202B61A65EB030568
:100810005B084FEA32024FF480104FF4002CB6EB25
:10082000020E75EB030E22BFB61A754640EA0C00A5
:100830005B084FEA3202B6EB020E75EB030E22BFE5
:10084000B61A754640EA5C005B084FEA3202B6EB26
:10085000020E75EB030E22BFB61A754640EA9C00E5
:100860005B084FEA3202B6EB020E75EB030E22BFB5
:10087000B61A754640EADC0055EA060E18D04FEA73
:10088000051545EA16754FEA06164FEAC30343EA13
:1008900052734FEAC2025FEA1C1CC0D111F4801FE0
:1008A0000BD141EA00014FF000004FF0004CB6E7D9
:1008B00011F4801F04BF01430020B4F1FD0C88BF78
:1008C000BCF5E06F3FF6AFAEB5EB030C04BFB6EB83
:1008D000020C5FEA500C50F1000041EB045170BD76
:1008E0000EF0004E4EEA113114EB5C04C2BFD4EBA3
:1008F0000C0541EA045170BD41F480114FF0000E27
:10090000013C90E645EA060E8DE60CEA135594EAA2
:100910000C0F08BF95EA0C0F3FF43BAF94EA0C0FA5
:100920000AD150EA01347FF434AF95EA0C0F7FF41A
:1009300025AF104619462CE795EA0C0F06D152EA6E
:1009400003353FF4FDAE1046194622E750EA410652
:1009500018BF52EA43067FF4C5AE50EA41047FF463
:100960000DAF52EA43057FF4EBAE12E74FF0FF3CC8
:1009700006E000BF4FF0010C02E000BF4FF0010C99
:100980004DF804CD4FEA410C7FEA6C5C4FEA430C12
:1009900018BF7FEA6C5C1BD001B050EA410C0CBF61
:1009A00052EA430C91EA030F02BF90EA020F0020C3
:1009B000704710F1000F91EA030F58BF994208BF2A
:1009C00090422CBFD8176FEAE37040F001007047E7
:1009D0004FEA410C7FEA6C5C02D150EA013C07D13E
:1009E0004FEA430C7FEA6C5CD6D152EA033CD3D089
:1009F0005DF8040B704700BF8446104662468C4683
:100A00001946634600E000BF01B5FFF7B7FF0028B5
:100A100048BF10F1000F01BD4DF808EDFFF7F4FFDE
:100A20000CBF012000205DF808FB00BF4DF808ED69
:100A3000FFF7EAFF34BF012000205DF808FB00BF8C
:100A40004DF808EDFFF7E0FF94BF012000205DF8AE
:100A500008FB00BF4DF808EDFFF7CEFF94BF012063
:100A600000205DF808FB00BF4DF808EDFFF7C4FF5C
:100A700034BF012000205DF808FB00BF4FEA410CA5
:100A80007FEA6C5C02D150EA013C0AD14FEA430C88
:100A90007FEA6C5C02D152EA033C02D14FF00000C5
:100AA00070474FF0010070474FEA4102B2F1E04356
:100AB00024BFB3F5001CDCF1FE5C0DD901F0004C45
:100AC0004FEAC0024CEA5070B2F1004F40EB830095
:100AD00008BF20F00100704711F0804F21D113F1C1
:100AE0003872BCBF01F00040704741F480114FEAFA
:100AF0005252C2F11802C2F1200C10FA0CF320FA83
:100B000002F018BF40F001004FEAC1234FEAD3239F
:100B100003FA0CFC40EA0C0023FA02F34FEA430309
:100B2000CCE77FEA625307D150EA01331EBF4FF092
:100B3000FE4040F44000704701F0004040F0FE40AD
:100B400040F40000704700BF80F0004002E000BFAA
:100B500081F0004142001FBF5FEA410392EA030FA8
:100B60007FEA226C7FEA236C6AD04FEA1262D2EBF2
:100B70001363C1BFD218414048404140B8BF5B42F7
:100B8000192B88BF704710F0004F40F4000020F090
:100B90007F4018BF404211F0004F41F4000121F0A6
:100BA0007F4118BF494292EA030F3FD0A2F10102F0
:100BB00041FA03FC10EB0C00C3F1200301FA03F12E
:100BC00000F0004302D5494260EB4000B0F5000F51
:100BD00013D3B0F1807F06D340084FEA310102F110
:100BE0000102FE2A51D2B1F1004F40EBC25008BFC2
:100BF00020F0010040EA03007047490040EB00008C
:100C0000013A28BFB0F5000FEDD2B0FA80FCACF18C
:100C1000080CB2EB0C0200FA0CF0AABF00EBC250B9
:100C200052421843BCBFD0401843704792F0000FA7
:100C300081F4000106BF80F400000132013BB5E7FA
:100C40004FEA41037FEA226C18BF7FEA236C21D070
:100C500092EA030F04D092F0000F08BF08467047D5
:100C600090EA010F1CBF0020704712F07F4F04D1A3
:100C7000400028BF40F00040704712F100723CBFB6
:100C800000F50000704700F0004343F0FE4040F4E0
:100C9000000070477FEA226216BF08467FEA23639E
:100CA0000146420206BF5FEA412390EA010F40F489
:100CB000800070474FF0000304E000BF10F00043D5
:100CC00048BF40425FEA000C08BF704743F09643BC
:100CD00001464FF000001CE050EA010208BF7047D7
:100CE0004FF000030AE000BF50EA010208BF70475E
:100CF00011F0004302D5404261EB41015FEA010C73
:100D000002BF84460146002043F0B64308BFA3F16A
:100D10008053A3F50003BCFA8CF2083AA3EBC2534C
:100D200010DB01FA02FC634400FA02FCC2F120026B
:100D3000BCF1004F20FA02F243EB020008BF20F0A2
:100D40000100704702F1200201FA02FCC2F1200208
:100D500050EA4C0021FA02F243EB020008BF20EAFD
:100D6000DC7070474FEA4002B2F1FE4F0FD34FF0F4
:100D70009E03B3EB12620DD94FEA002343F0004308
:100D800010F0004F23FA02F018BF404270474FF0B6
:100D90000000704712F1610F01D1420205D110F03D
:100DA000004008BF6FF0004070474FF000007047F0
:100DB00010B5054C237833B9044B13B10448AFF395
:100DC00000800123237010BD6C0000200000000093
:100DD0004C44000808B5034B1BB103490348AFF36B
:100DE000008008BD00000000700000204C44000896
:100DF00070B586B0002402940394049405941C4BAF
:100E00009A6942F004029A619A6902F0040200921F
:100E1000009A9A6942F008029A619B6903F00803FC
:100E20000193019B134D22464FF47361284601F054
:100E3000C6FA012602960394049402A90E4801F012
:100E4000A9F9042302930D4B0393049402A92846A5
:100E500001F0A0F94FF47363029303960494022304
:100E6000059302A9284601F095F906B070BD00BFB0
:100E700000100240000C0140000801400000111069
:100E800000B583B00A4B5A6942F001025A615B69AE
:100E900003F001030193019B002211460B2001F096
:100EA0001FF80B2001F02CF803B05DF804FB00BF25
:100EB000001002400000000008B502681C4B9A4276
:100EC00000D008BD1B4B01221A701B4B1868FFF79E
:100ED000C1FA11A3D3E90023FFF736FB10A3D3E92E
:100EE0000023FFF75BFCFFF7DFFDFFF7D5FA0EA34A
:100EF000D3E90023FFF79AFD30B101224FF40071CE
:100F00000E4801F05CFADCE700224FF400710B4858
:100F100001F055FAD5E700BF6666666666660A4068
:100F20000000000000FEAF409A9999999999F53F09
:100F30000024014088000020C0000020000C014077
:100F40002DE9F0470024254601E00134E4B2072CE6
:100F50002BD8631C164A52F82300FFF77BFA06468B
:100F60000F46144B33F814A0134B33F81400AAEBBC
:100F70000000FFF77FFA0022104BFFF7E5FA8046EA
:100F800089465046FFF776FA42464B46FFF724F96A
:100F900002460B4630463946FFF766FD0028D4D09E
:100FA0000120A0402843C5B2CFE72846BDE8F0871E
:100FB000C000002068440008784400080000E03FBA
:100FC0002DE9F84F0446714D286000F067FCDFF80A
:100FD000C081D8F80030C01A6E4BA3FB00308009E6
:100FE0006D4E336800FB043333606C4F3B68E31A8B
:100FF0006B4A136000F052FCC8F80000694B186897
:10100000FFF74AFA80468946674B1878FFF722FABD
:1010100002460B464FF0000ADFF890B150465946A1
:1010200002F05EFA02460B4640464946FFF7B6FB21
:10103000804689462868FFF71DFA42464B46FFF76F
:1010400083FAFFF731FD0546594B1860594B186874
:10105000FFF722FA80468946574B1878FFF7FAF9CE
:1010600002460B465046594602F03AFA02460B46F3
:1010700040464946FFF792FB804689463068FFF7B5
:10108000F9F942464B46FFF75FFAFFF70DFD0646BA
:101090004A4B18604A4B1868FFF7FEF980468946AC
:1010A000484B1878FFF7D6F902460B46504659468A
:1010B00002F016FA02460B4640464946FFF76EFB21
:1010C00080468946364A1068FFF7D4F942464B46B7
:1010D000FFF73AFAFFF7E8FC80463B4B18603146D1
:1010E0002846FFF737FD01464046FFF733FD05462A
:1010F0003C60364B1868FFF7E1FD06462946FFF7CE
:1011000027FDFFF72FFE0446314B18602946304675
:10111000FFF720FDFFF726FE2E4B1860B4F52F7F5A
:1011200003DD2B4B4FF42F721A60294B1B6813F50C
:101130002F7F02DA264B284A1A60B0F52F7F03DD95
:10114000244B4FF42F721A60224B1B6813F52F7F2C
:1011500002DA204B204A1A601E4B1A681C4B1B688F
:1011600082EAE270A0EBE27083EAE371A1EBE37143
:10117000002BD4BF00230123002AD4BF0022012268
:1011800089B280B200F01AFBBDE8F88FA4000020FD
:10119000AC000020D34D62109C000020980000207D
:1011A000A00000200C0000200600002000002440C9
:1011B000B80000200800002005000020B400002036
:1011C000BC00002004000020B0000020000000202F
:1011D000900000208C00002044FDFFFF2DE9D0434B
:1011E000184B33F81140184B33F81100844227D0C4
:1011F000A4EB00080131154B53F82100FFF72AF941
:1012000006460F464046FFF735F90022104BFFF720
:101210009BF9804689462046FFF72CF942464B460B
:10122000FEF7DAFF02460B4630463946FFF71CFC54
:1012300020B14FF47A7080B2BDE8D0830020FAE785
:101240000020F9E76844000878440008C000002046
:101250000000E03FF8B50024264627460EE0651C56
:1012600021460A4B33F82500FFF7B8FF00FB04F4D2
:101270004FF47A7303FB04770644ECB2072CEED9E3
:101280000EB1B7FBF6F63046F8BD00BFC000002037
:1012900008B5FFF7DFFF1B4B188083B2C3F55A6315
:1012A0000C33194A136017E00123002240F2E911C0
:1012B0004FF48C7000F082FA144B00221A7009224D
:1012C0001349144800F0A8FC104B1B78002BFBD0EE
:1012D000FFF7C0FF0B4B1880FFF732FE60B90E4BD3
:1012E0001B68002BE0DB002301224FF48C7140F2DD
:1012F000E91000F063FADFE7034B1868FFF760FEC0
:1013000008BD00BFA8000020940000208800002035
:10131000C0000020B80100209800002072B6FEE74F
:1013200000B585B000230193029303933B483C4AE8
:1013300002604FF480728260037303754FF4602281
:10134000C26143600923036100F0FEFC002850D114
:10135000012301930293039301A9304800F078FB25
:10136000002848D102230193029301A92B4800F0E1
:101370006FFB002841D103230193029301A9274861
:1013800000F066FB00283AD10423019302930DEB91
:101390000301224800F05CFB002832D105230193B1
:1013A000029301A91D4800F053FB60BB0623019383
:1013B000029301A9194800F04BFB30BB07230193AE
:1013C000029301A9154800F043FB00BB08230193D9
:1013D000029301A9114800F03BFBD0B90923019306
:1013E000029301A90D4800F033FBA0B905B05DF8E8
:1013F00004FBFFF793FFFFF791FFFFF78FFFFFF766
:101400008DFFFFF78BFFFFF789FFFFF787FFFFF7E0
:1014100085FFFFF783FFFFF781FF00BFB8010020C2
:101420000024014010B596B0002412941394149433
:1014300015941094119409940A940B940C940D949F
:101440000E940F942022214601A802F016F82E488F
:101450002E4B03604460846040F21F33C36004611C
:101460004461846101F048FD00283ED14FF480536F
:10147000129312A9244801F04DFE002837D12248CA
:1014800001F066FD002834D100231093119310A9B8
:101490001D4801F04BFF00282DD160230993002245
:1014A0000A920B920C920D920E920F9209A9164875
:1014B00001F0B6FD08BB042209A9134801F0B0FDF4
:1014C000E8B90023019302930393049305934FF427
:1014D00000520692089301A90B4801F061FF80B900
:1014E000094801F021F816B010BDFFF717FFFFF70C
:1014F00015FFFFF713FFFFF711FFFFF70FFFFFF7D0
:101500000DFFFFF70BFF00BF2C010020002C014056
:1015100000B58FB000230A930B930C930D9308939F
:1015200009930193029303930493059306930793FE
:1015300022484FF0804202604360836040F21F32D5
:10154000C2600361836101F0D7FC58BB4FF4805344
:101550000A930AA9194801F0DDFD28BB174801F0DC
:10156000F7FC18BB00230893099308A9134801F05E
:10157000DDFEE8B9602301930022029203920592F6
:1015800001A90E4801F04CFDA0B904220DEB0201A7
:101590000A4801F045FD78B9084800F0C5FF0FB0D2
:1015A0005DF804FBFFF7BAFEFFF7B8FEFFF7B6FEE3
:1015B000FFF7B4FEFFF7B2FEFFF7B0FEE400002035
:1015C00000B593B02822002108A801F056FF00239F
:1015D0000393049305930693079300930193029357
:1015E0000223089301220C9210220D920F934FF4C4
:1015F0008013119308A801F00DF8B0B90F230393DD
:1016000002230493002105910691079103A801F09C
:1016100033FA60B90223009300230293684601F075
:10162000B5FA30B913B05DF804FBFFF777FEFFF7AA
:1016300075FEFFF773FE000010B500F017F9FFF715
:10164000BFFFFFF7D5FBFFF71BFCFFF769FEFFF7B6
:10165000E9FEFFF75DFF324C01224FF400612046A6
:1016600000F0ADFE4FF4967000F01EF900224FF42A
:101670000061204600F0A3FE01224FF48061204665
:1016800000F09DFE01222021204600F098FE092254
:101690002449254800F0C0FA00F04CF80121234805
:1016A00000F086FE0028F9D04FF47A7000F0FCF8C4
:1016B0000AE001224FF48071194800F080FE0121F8
:1016C0001A4800F075FED0B9194B1B78002BF6D0E4
:1016D000174B00221A70FFF7DBFD0922114912484F
:1016E00000F09AFAFFF72CFC0028E2D0FF28E0D0A7
:1016F00000224FF480710A4800F061FEDFE700F03D
:1017000053F8074C00224FF48061204600F057FE4A
:1017100000222021204600F052FE002010BD00BF14
:10172000000C0140C0000020B8010020000801406A
:101730008800002010B5184C01221021204600F02E
:101740003EFE012000F0B0F800221021204600F0FB
:1017500036FE012000F0A8F801221021204600F0FA
:101760002EFE0E4C0021204601F062FD0421204691
:1017700001F05EFD0A4C0021204601F059FD0421D4
:10178000204601F055FD074A0023536393634FF051
:1017900080425363936310BD000C01402C01002074
:1017A000E4000020002C014008B50022102102486E
:1017B00000F005FE08BD00BF000C014070B440F20F
:1017C0001F34261A154D6E63AE63641A4FF0804CB9
:1017D000CCF83440CCF83840AAB940F21F346C63DE
:1017E000B3B94FF0804340F21F325A6318B90B4B24
:1017F00000225A639A6321B94FF0804300225A6352
:101800009A6370BC7047054A40F21F349463E7E75F
:101810004FF0804340F21F329A63E7E7002C01400B
:1018200010B504460E4B1A784FF47A73B3FBF2F3FB
:101830000C4A1068B0FBF3F000F070FB68B90F2C95
:1018400001D901200AE0002221464FF0FF3000F0CC
:1018500047FB054B1C60002000E0012010BD00BFCD
:1018600010000020180000201400002008B50320FC
:1018700000F024FB0F20FFF7D3FF00F0A7FD0020AE
:1018800008BD0000034A1168034B1B780B4413602A
:10189000704700BFE801002010000020014B1868CD
:1018A000704700BFE801002038B50446FFF7F6FF97
:1018B0000546B4F1FF3F02D0044B1B781C44FFF7F0
:1018C000EDFF401BA042FAD338BD00BF100000203E
:1018D00008B5436A9A6A12F0500F1ED19A6A42F410
:1018E00000729A621A68926802F46022B2F5602F60
:1018F00003D01846FFF7E0FA08BD1A7B002AF8D19A
:101900009A6A22F480729A629A6A12F4805FF0D125
:101910009A6A42F001029A62EBE71B6A1B6B9847D6
:10192000EAE7704708B5406AFFF7FBFF08BD70475C
:1019300070B5044603681E685D6815F0200F17D067
:1019400016F0020F14D0826A12F0100F03D1826ACF
:1019500042F4007282629A6802F46022B2F5602F4B
:1019600033D02046FFF7A8FA23686FF012021A60FE
:1019700015F0800F22D016F0040F1FD0A36A13F0C9
:10198000100F03D1A36A43F40053A3622268936843
:1019900003F4E043B3F5E04F2ED0536813F4806FA7
:1019A00005D1936803F46023B3F5602F21D020465E
:1019B00000F04EFA23686FF00C021A6015F0400F29
:1019C00002D016F0010F28D170BD227B002AC8D1A9
:1019D0005A6822F020025A60A36A23F48073A3623B
:1019E000A36A13F4805FBCD1A36A43F00103A3622E
:1019F000B7E7237B002BDAD1536823F080035360D1
:101A0000A36A23F48053A362A36A13F4807FCED128
:101A1000A36A43F00103A362C9E7A36A43F48033D6
:101A2000A3622046FFF783FF23686FF001021A606C
:101A3000CAE7704708B5406A836A43F0400383628F
:101A4000C36A43F00403C362FFF7F3FF08BD00005D
:101A500030B482B00022019290F82420012A00F0D4
:101A60008F800346012280F824204A68062A2DD858
:101A70000468606B02EB8202053A4FF01F0C0CFA0F
:101A800002FC20EA0C000D6805FA02F202436263D0
:101A90000A68092A38D91C68E06802EB42021E3A3B
:101AA0004FF0070C0CFA02FC20EA0C008D6805FAD6
:101AB00002F20243E2600A68103A012A34D9002097
:101AC000002283F8242002B030BC70470C2A0DD8C5
:101AD0000568286B02EB8202233A1F24944020EA17
:101AE00004000C68944020432863D1E70568E86A45
:101AF00002EB8202413A1F24944020EA04000C6861
:101B000094402043E862C3E71C68206902EB42026C
:101B10004FF0070C0CFA02FC20EA0C008D6805FA65
:101B200002F202432261C6E71A681648824205D0D3
:101B30009A6A42F020029A620120C1E7906810F48C
:101B4000000F1BD1906840F4000090600A68102AD2
:101B500001D00020B4E70C4A12680C49A1FB021224
:101B6000920C02EB82025200019202E0019A013AC9
:101B70000192019A002AF9D10020A1E700209FE7F5
:101B80000220A0E7002401401800002083DE1B4350
:101B900030B583B00023019303689A6812F0010FF7
:101BA00033D104469A6842F001029A60184B1B68D0
:101BB000184AA2FB03239B0C019302E0019B013B0B
:101BC0000193019B002BF9D1FFF768FE05462368BE
:101BD0009B6813F0010F16D1FFF760FE431B022B29
:101BE000F5D923689B6813F0010FF0D1A36A43F085
:101BF0001003A362E36A43F00103E362002384F865
:101C00002430012002E0002000E0002003B030BDBD
:101C10001800002083DE1B43F8B50D4690F8241011
:101C200001295DD004461646012380F82430FFF7D1
:101C3000AFFF074600284ED1A16A21F4706121F060
:101C4000010141F48071A162A36A23F48013A362AD
:101C500023685B6813F4806F05D0A36A23F44053B4
:101C600043F48053A362A36A13F4805F2BD0E36A2A
:101C700023F00603E362002384F82430236A194A20
:101C80009A62236A184ADA62236A184A1A63236836
:101C90006FF002021A602268936843F480739360C5
:101CA000216833462A464C31206A00F095F92268B3
:101CB000936803F46023B3F5602F07D0936843F46F
:101CC000801393600AE00023E362D4E7936843F44F
:101CD000A003936002E0002384F824303846F8BD66
:101CE0000227FBE7D118000825190008351A00085B
:101CF00038B503689A6812F0010F01D1002038BD91
:101D000004469A6822F001029A60FFF7C7FD054673
:101D100023689B6813F0010F13D0FFF7BFFD431B2F
:101D2000022BF5D923689B6813F0010FF0D0A36A4A
:101D300043F01003A362E36A43F00103E36201206E
:101D4000DDE70020DBE7000000287BD070B504460B
:101D5000836A002B4DD02046FFF7CAFFA36A13F019
:101D6000100369D1002867D1A26A22F4885222F0B8
:101D7000020242F00202A2626268E1690A43217B28
:101D800042EA4102A568B5F5807F02D0012D36D028
:101D90001D46267D012E35D02668716821F46941E3
:101DA000294371602568AE68274931401143A96015
:101DB000A168B1F5807F01D0012902D12369013BDF
:101DC0001B052568E96A21F470010B43EB62236867
:101DD00099681E4B0B409A4225D0A36A23F0120348
:101DE00043F01003A362E36A43F00103E3620120BE
:101DF00027E0C36280F8243000F00AFBABE74FF421
:101E00008075C6E731B9A169013945EA413141F42C
:101E10000065C1E7A16A41F02001A162E16A41F0D9
:101E20000101E162B8E70023E362A36A23F0030340
:101E300043F00103A36204E0A36A43F01003A3622A
:101E4000012070BD01207047FDF7E1FFFE0E1FFF6E
:101E500070470000002808DB0901C9B200F16040AA
:101E600000F5614080F80013704700F00F00090191
:101E7000C9B2014B1954704714ED00E000B500F0F1
:101E80000700C0F1070CBCF1040F28BF4FF0040C91
:101E9000031D062B0FD9C31E4FF0FF3E0EFA0CF0A8
:101EA00021EA000199400EFA03FE22EA0E0241EAFD
:101EB00002005DF804FB0023EEE70000074AD36848
:101EC00023F4E0631B041B0C000200F4E0600343F6
:101ED00043F0BF6343F40033D360704700ED00E08C
:101EE00010B50446054BD868C0F30220FFF7C6FFC3
:101EF00001462046FFF7AEFF10BD00BF00ED00E039
:101F0000002807DB00F01F02400901239340024A2A
:101F100042F82030704700BF00E100E00138B0F126
:101F2000807F0BD24FF0E0235861054AF02182F800
:101F300023100020986107221A6170470120704722
:101F400000ED00E030B40124056CAC40C56B6C6062
:101F5000046863604368102B05D0036899600368C8
:101F6000DA6030BC704703689A600368D960F8E7AC
:101F700050B310B402460168144B0B441448A0FB44
:101F800003031B099B001364124BD363022382F8E3
:101F9000213008686FF30D10536894682343D468A8
:101FA0002343146923435469234394692343D46925
:101FB000234303430B6000209063012382F8213008
:101FC00082F8200010BC704701207047F8FFFDBF69
:101FD000CDCCCCCC0000024038B5044690F82000AF
:101FE000012832D0012084F8200094F82100C0B2EA
:101FF000012804D0002384F82030022038BD0220BC
:1020000084F821000020A0632568286820F00100E2
:1020100028602046FFF796FFE36A5BB122681368E9
:1020200043F00E0313602268136843F0010313604A
:102030000020E3E72268136823F00403136022689A
:10204000136843F00A031360EDE70220D6E70000AF
:1020500038B5C36B1A6804682568016C04238B408B
:10206000134235D015F0040F32D0236813F0200F3F
:1020700003D1236823F0040323600368434A934297
:1020800014D01432934218D01432934217D0143221
:10209000934217D01432934217D01432934202D095
:1020A0004FF0806203E04FF4800200E00422384BDE
:1020B0005A60C36A03B1984738BD4022F7E74FF42E
:1020C0008062F4E74FF48042F1E74FF48022EEE7BC
:1020D00002238B4013423CD015F0020F39D0236805
:1020E00013F0200F06D1236823F00A032360012395
:1020F00080F821300368254A934214D01432934269
:102100001CD0143293421BD0143293421BD0143291
:1021100093421BD01432934202D04FF0007203E07E
:102120004FF4001200E00222194B5A60002380F89D
:102130002030836A002BBFD09847BDE72022F3E709
:102140004FF40072F0E74FF40052EDE74FF4003225
:10215000EAE708238B401342AED015F0080FABD04E
:10216000236823F00E032360026CC16B012303FA82
:1021700002F24A60836380F82130002380F8203027
:10218000036B002B98D0984796E700BF08000240E9
:102190000000024070B582B00024A446A1E07E4D4C
:1021A000AB4214D00CD8A5F58015AB420FD005F585
:1021B0007025AB420BD0A5F58015AB4210D106E0DF
:1021C000764DAB4203D005F58035AB4208D18B6824
:1021D000002B50D0012B49D04261082400E0CC688C
:1021E000BEF1FF0F49D806464FEA8C0233680F252F
:1021F000954023EA050304FA02F2134333604B6867
:1022000013F0805F6BD0664B9A6942F001029A61CD
:102210009B6903F001030193019B4FEA9C02951C0B
:10222000604B53F825600CF00305AD000F23AB4065
:1022300026EA03065C4B984226D003F58063984259
:1022400000F08C8003F58063984200F0898003F5EC
:102250008063984216D0042317E0CC680434BFE7AB
:10226000CC680834BCE7CC680C34B9E702610824B8
:10227000B6E70024B4E70424B2E7061DACF1080277
:102280009200B3E7032300E00023AB403343023264
:10229000444D45F822304B6813F4801F62D0434A06
:1022A000936843EA0E0393604B6813F4001F5FD0FA
:1022B0003E4AD36843EA0E03D3604B6813F4003FF1
:1022C0005CD03A4A536843EA0E0353604B6813F4F8
:1022D000803F59D0354A136843EA0E0313600CF16E
:1022E000010C0B6833FA0CF254D0012202FA0CF202
:1022F00003EA020E32EA0303F1D14B68122B3FF6D8
:102300004EAF122B3FF66CAF01A555F823F000BF7E
:10231000CF210008DF210008612200087322000895
:10232000E1210008E1210008E1210008E121000885
:10233000E1210008E1210008E1210008E121000875
:10234000E1210008E1210008E1210008E121000865
:10235000E12100085B22000867220008012394E7BE
:10236000022392E7114A936823EA0E0393609BE7E6
:102370000E4AD36823EA0E03D3609EE70B4A5368E4
:1023800023EA0E035360A1E7084A136823EA0E0309
:102390001360A4E702B070BD0000221000003110ED
:1023A000001002400000014000080140000401400C
:1023B0008368194201D001207047002070470AB19C
:1023C00001617047090401617047000082B00E4B43
:1023D0009A6942F001029A619A6902F00102009240
:1023E000009ADA6942F08052DA61DB6903F08053C7
:1023F0000193019B054A536823F0E06343F00073A7
:10240000536002B0704700BF00100240000001405E
:1024100030B589B0002304930593069307930268AF
:10242000294B9A4201D009B030BD044603F56C43F4
:102430009A6942F400729A619A6902F400720192F8
:10244000019A9A6942F004029A619A6902F00402C0
:102450000292029A9A6942F008029A619B6903F01B
:1024600008030393039BFE2304930325059504A906
:102470001648FFF78FFE0495059504A91448FFF749
:1024800089FE1448144B036000234360836080225C
:10249000C2604FF4007202614FF400624261202278
:1024A0008261C361FFF764FD58B90A4B23625C6225
:1024B000002211461220FFF713FD1220FFF720FD26
:1024C000B1E7FEF72BFFF0E70024014000080140D0
:1024D000000C0140740100200800024082B0036833
:1024E0000F4A934204D0B3F1804F0CD002B0704732
:1024F0000C4B9A6942F400629A619B6903F4006391
:102500000093009BF2E703F50433DA6942F001021D
:10251000DA61DB6903F001030193019BE6E700BF89
:10252000002C01400010024010B588B00023049335
:102530000593069307930368264A934204D0B3F1A8
:10254000804F16D008B010BD234B9A6942F00402A8
:102550009A619B6903F004030193019B4FF440735C
:10256000049302230593079304A91C48FFF712FE66
:10257000E8E703F504339A6942F004029A619A6924
:1025800002F004020292029A9A6942F008029A61E9
:102590009B6903F008030393039B4FF400430493E8
:1025A00002240594079404A90C48FFF7F3FD0823BF
:1025B00004930594079404A90948FFF7EBFD094A21
:1025C000536823F4407343F0E06343F48073536033
:1025D000B8E700BF002C0140001002400008014095
:1025E000000C01400000014082B0084B1B68084A03
:1025F000A2FB03235B0A00FB03F3019300BF019BD3
:102600005A1E0192002BF9D102B070471800002029
:10261000D34D6210002800F0F18170B582B00446FD
:10262000036813F0010F2CD0994B5B6803F00C0387
:10263000042B1DD0964B5B6803F00C03082B12D0C3
:102640006368B3F5803F41D0002B55D103F180433F
:1026500003F504331A6822F480321A601A6822F4EF
:1026600080221A6037E08A4B5B6813F4803FE7D022
:10267000874B1B6813F4003F03D06368002B00F006
:10268000BF81236813F0020F75D0814B5B6813F094
:102690000C0F5FD07E4B5B6803F00C03082B54D00B
:1026A0002369002B00F08A807A4B01221A60FFF721
:1026B000F5F80546764B1B6813F0020F75D1FFF74E
:1026C000EDF8401B0228F5D903209EE1704A1368FB
:1026D00043F480331360636843B3FFF7DFF80546C4
:1026E0006B4B1B6813F4003FCBD1FFF7D7F8401BAF
:1026F0006428F5D9032088E1B3F5A02F09D0644BF5
:102700001A6822F480321A601A6822F480221A6051
:10271000E1E703F18043A3F53C331A6842F48022D9
:102720001A601A6842F480321A60D4E7FFF7B6F8EC
:102730000546574B1B6813F4003FA2D0FFF7AEF8D5
:10274000401B6428F5D903205FE1514B5B6813F40B
:10275000803FA5D14E4B1B6813F0020F03D02369B5
:10276000012B40F04F814A4A136823F0F803616956
:1027700043EAC1031360236813F0080F33D0A36941
:10278000002B5CD0434B0122C3F88024FFF786F86E
:1027900005463F4B5B6A13F0020F21D1FFF77EF82D
:1027A000401B0228F5D903202FE1394A136823F092
:1027B000F803616943EAC1031360DCE7354B00228B
:1027C0001A60FFF76BF80546314B1B6813F0020FD8
:1027D000D1D0FFF763F8401B0228F5D9032014E19C
:1027E0000120FFF701FF236813F0040F00F096802B
:1027F000274BDB6913F0805F34D1254BDA6942F057
:102800008052DA61DB6903F080530193019B01255B
:10281000214B1B6813F4807F26D0E368012B3DD049
:10282000002B53D103F1804303F504331A6A22F0DD
:1028300001021A621A6A22F004021A6233E0154B8E
:102840000022C3F88024FFF729F80546104B5B6A85
:1028500013F0020FC7D0FFF721F8401B0228F5D96B
:102860000320D2E00025D3E70B4A136843F48073BA
:102870001360FFF713F80646074B1B6813F4807FBD
:10288000CBD1FFF70BF8801B6428F5D90320BCE0FF
:102890000010024000004242007000405F4A136A8C
:1028A00043F001031362E36833B3FEF7F7FF064614
:1028B0005A4B1B6A13F0020F2FD1FEF7EFFF801B5C
:1028C00041F288339842F3D903209EE0052B09D0CA
:1028D000524B1A6A22F001021A621A6A22F00402AA
:1028E0001A62E0E74D4B1A6A42F004021A621A6A51
:1028F00042F001021A62D6E7FEF7D0FF0646474BC8
:102900001B6A13F0020F08D0FEF7C8FF801B41F2CC
:1029100088339842F3D9032077E0E5B9E369002BC7
:1029200072D03E4A526802F00C02082A56D0022B9E
:1029300017D03B4B00221A66FEF7B0FF0446374B18
:102940001B6813F0007F47D0FEF7A8FF001B02288A
:10295000F5D9032059E0314AD36923F08053D3617C
:10296000DCE72F4B00221A66FEF798FF05462B4B3B
:102970001B6813F0007F06D0FEF790FF401B022873
:10298000F5D9032041E0236AB3F5803F1AD02349EB
:102990004B6823F47413226A606A024313434B604A
:1029A0001F4B01221A66FEF779FF04461B4B1B687A
:1029B00013F0007F0ED1FEF771FF001B0228F5D93E
:1029C000032022E0154AD36A23F00F03A1680B43CA
:1029D000D362DCE7002018E0002016E0012B16D0BF
:1029E0000E4B5B6803F48031226A914211D103F4EB
:1029F0007013626A93420ED1002006E001207047F6
:102A0000012002E0012000E0002002B070BD0120A2
:102A1000FBE70120F9E70120F7E700BF00100240C3
:102A2000000042420F4B5B6803F00C02082A01D001
:102A30000D487047C3F383420C49885C13F4803F10
:102A40000BD0084BDB6A03F00F03094AD35C064A3C
:102A500002FB00F0B0FBF3F07047064B03FB00F005
:102A6000704700BF0010024000127A00984400082E
:102A70008844000800093D0000287BD038B5044692
:102A8000036813F0020F17D013F0040F04D03B4A71
:102A9000536843F4E0635360236813F0080F04D0D5
:102AA000364A536843F460535360344A536823F002
:102AB000F003A1680B435360236813F0010F31D07A
:102AC0006368012B20D0022B25D02C4A126812F00B
:102AD000020F51D029494A6822F0030213434B6088
:102AE000FEF7DCFE0546254B5B6803F00C036268CD
:102AF000B3EB820F16D0FEF7D1FE401B41F28833B4
:102B00009842F0D9032034E01C4A126812F4003FC6
:102B1000E0D101202DE0194A126812F0007FD9D1CE
:102B2000012026E0236813F0040F06D0134A5368EF
:102B300023F4E063E1680B435360236813F0080F4C
:102B400007D00E4A536823F46053216943EAC10356
:102B50005360FFF767FF094B5B68C3F30313084A31
:102B6000D35CD840074B1860074B1868FEF758FE37
:102B7000002038BD012070470120FAE70010024014
:102B8000A8440008180000201400002070B582B08E
:102B90000446036813F0010F35D0394BDB6913F09D
:102BA000805F3DD1364BDA6942F08052DA61DB69F1
:102BB00003F080530193019B0125324B1B6813F4F2
:102BC000807F2FD02E4B1B6A13F4407313D06268A2
:102BD00002F440729A420ED0294A136A23F44070DC
:102BE00029490126C1F840640026C1F840641062FA
:102BF00013F0010F2AD1224A136A23F4407361684B
:102C00000B4313629DBB236813F0020F34D01C4AA0
:102C1000536823F44043A1680B43536000202CE029
:102C20000025CAE7174A136843F480731360FEF760
:102C300035FE0646134B1B6813F4807FC2D1FEF7A6
:102C40002DFE801B6428F5D9032016E0FEF726FE32
:102C500006460B4B1B6A13F0020FCCD1FEF71EFE8B
:102C6000801B41F288339842F3D9032005E0D369F1
:102C700023F08053D361C6E7002002B070BD00BFCF
:102C800000100240007000400000424230B4026A6E
:102C9000036A23F0010303624468836923F073032A
:102CA0000D681D4322F002028B681343184A9042BC
:102CB0000BD002F5A052904207D002F580629042FC
:102CC00003D002F58062904205D123F00803CA6860
:102CD0001A4322F004030E4A90420BD002F5A05290
:102CE000904207D002F58062904203D002F58062E4
:102CF000904205D124F440744A6922438C691443FC
:102D0000446085614A684263036230BC704700BF1B
:102D1000002C014030B4036A026A22F4807202621D
:102D20004268C46924F0730C0C6844EA0C0523F46F
:102D300000738C6843EA0423124CA0420BD0124C5F
:102D4000A0420FD004F58064A0420BD004F580644B
:102D5000A0420FD106E023F40063CC6843EA0423C9
:102D600023F4806322F440524C6942EA04128C69D5
:102D700042EA04124260C5614A68C263036230BC21
:102D8000704700BF002C01400040014030B4036A8E
:102D9000026A22F4805202624468C26922F4E64266
:102DA0000D6842EA052223F400538D6843EA053397
:102DB0000D4DA8420BD005F5A055A84207D005F54A
:102DC0008065A84203D005F58065A84204D124F4AB
:102DD00080444D6944EA85144460C2614A680264D3
:102DE000036230BC704700BF002C014010B4036A7E
:102DF000046A24F001040462846924F0F00C4CEAB3
:102E0000021223F00A030B438261036210BC704775
:102E100010B4036A046A24F010040462846924F480
:102E2000704C4CEA023223F0A00343EA01138261A2
:102E3000036210BC7047836823F070030B4343F0B8
:102E4000070383607047704703682A4A90420AD09C
:102E5000B0F1804F07D0A2F59432904203D002F532
:102E60008062904203D123F070034A681343214AE1
:102E7000904216D0B0F1804F13D0A2F59432904218
:102E80000FD002F5806290420BD002F59C32904246
:102E900007D002F58062904203D002F58062904232
:102EA00003D123F44073CA68134323F080034A69B3
:102EB000134303608B68C3620B6883620D4B9842B7
:102EC0000BD003F5A053984207D003F580639842D6
:102ED00003D003F58063984201D10B69036301239A
:102EE0004361036913F0010F03D0036923F0010369
:102EF00003617047002C014040B310B5044690F8C0
:102F00003D30F3B1022384F83D30214651F8040BE3
:102F1000FFF79AFF012384F8463084F83E3084F8A6
:102F20003F3084F8403084F8413084F8423084F8EF
:102F3000433084F8443084F8453084F83D30002034
:102F400010BD80F83C30FFF7C9FADBE7012070477D
:102F500040B310B5044690F83D30F3B1022384F835
:102F60003D30214651F8040BFFF76EFF012384F832
:102F7000463084F83E3084F83F3084F8403084F89E
:102F8000413084F8423084F8433084F8443084F887
:102F9000453084F83D30002010BD80F83C30FFF70C
:102FA00052FFDBE70120704730B4036A026A22F067
:102FB000100202624268846924F4E64C0C684CEA10
:102FC000042423F020038D6843EA0513124DA84220
:102FD0000BD0124DA8420FD005F58065A8420BD04A
:102FE00005F58065A8420FD106E023F08003CD6887
:102FF00043EA051323F0400322F440624D6942EA9C
:1030000085028D6942EA8502426084614A68826372
:10301000036230BC704700BF002C014000400140FB
:1030200038B590F83C30012B66D004460D4601239C
:1030300080F83C300C2A5AD8DFE802F00759595979
:103040001B5959593059595944000068FFF71EFE61
:103050002268936943F0080393612268936923F01F
:10306000040393612268936929690B4393610020EB
:103070003EE00068FFF798FF2268936943F400631D
:1030800093612268936923F4806393612268936952
:10309000296943EA01239361002029E00068FFF7D2
:1030A00039FE2268D36943F00803D3612268D369EB
:1030B00023F00403D3612268D36929690B43D361E8
:1030C000002015E00068FFF761FE2268D36943F431
:1030D0000063D3612268D36923F48063D3612268DB
:1030E000D369296943EA0123D361002000E001206C
:1030F000002384F83C3038BD0220FCE710B484681B
:1031000024F47F4C42EA03220A4342EA0C02826022
:1031100010BC704790F83C30012B78D010B50446B5
:10312000012380F83C30022380F83D300268936828
:1031300023F47F4323F0770393600B68602B4CD01C
:1031400023D8402B54D011D8202B03D00AD80BB150
:10315000102B05D119462068FFF76DFE002028E0EE
:10316000012026E0302BF5D0012022E0502B0AD19F
:10317000CA6849680068FFF739FE50212068FFF7E8
:103180005AFE002015E0012013E0B3F5805F3AD02D
:10319000B3F5005F14D0702B37D1CB684A688968CB
:1031A0000068FFF7ABFF2268936843F077039360F2
:1031B0000020012384F83D30002384F83C3010BD0A
:1031C000CB684A6889680068FFF798FF22689368AF
:1031D00043F4804393600020EBE7CA6849680068C5
:1031E000FFF716FE60212068FFF725FE0020E0E7CC
:1031F000CA6849680068FFF7F9FD40212068FFF7B9
:103200001AFE0020D5E70020D3E70120D1E70220F5
:10321000704701F01F014FF0010C0CFA01FC036A2A
:1032200023EA0C030362036A8A4013430362704774
:1032300010B50446084600293ED194F83E30DBB272
:10324000013B18BF0123002B6AD100284DD1022376
:1032500084F83E30012201462068FFF7DAFF236838
:10326000314A93420BD002F5A052934207D002F5A7
:103270008062934203D002F58062934203D15A6C7C
:1032800042F400425A642368274A93423DD0B3F186
:10329000804F3AD0A2F59432934236D002F5806244
:1032A000934232D002F59C3293422ED01A6842F0FB
:1032B00001021A60002032E0042908D008290DD04C
:1032C00094F84130DBB2013B18BF0123BBE794F80F
:1032D0003F30DBB2013B18BF0123B4E794F8403024
:1032E000DBB2013B18BF0123ADE7042805D0082855
:1032F00007D0022384F84130ACE7022384F83F3042
:10330000A8E7022384F84030A4E79A6802F0070295
:10331000062A07D01A6842F001021A60002010BD88
:103320000120FCE70020FAE7002C014090F83C2047
:10333000012A30D010B40346012280F83C2002223A
:1033400080F83D2002685068946820F0700C08688E
:1033500040EA0C0050601A68104882420ED0B2F168
:10336000804F0BD0A0F59430824207D000F58060EA
:10337000824203D000F59C30824204D124F08004C4
:10338000496821439160012283F83D20002083F8A1
:103390003C0010BC70470220704700BF002C014069
:1033A000024690F83C30012B21D0012380F83C30BC
:1033B000CB6823F440738868034323F48063486830
:1033C000034323F400630868034323F4805308692C
:1033D000034323F400534869034323F48043C9693A
:1033E0000B4311684B64002082F83C0070470220B8
:1033F0007047FEE7FEE7FEE7FEE7FEE7704770472F
:10340000704708B5FEF73EFA08BD000008B502484F
:10341000FEF71EFE08BD00BF7401002008B502487B
:10342000FEF786FA08BD00BFB80100207047000013
:10343000FFF7FCFF0B480C490C4A002302E0D4586C
:10344000C4500433C4188C42F9D3094A094C0023F0
:1034500001E013600432A242FBD300F01DF8FEF736
:10346000EBF87047000000206C000020D0440008FA
:103470006C00002024030020FEE703460244934230
:1034800000D1704703F8011BF9E70000014B1868F1
:10349000704700BF1C00002070B500260C4D0D4C7D
:1034A000641BA410A64209D100F0D0FF00260A4DEB
:1034B0000A4C641BA410A64205D170BD55F8043B0C
:1034C00098470136EEE755F8043B98470136F2E796
:1034D000C8440008C8440008C8440008CC44000898
:1034E0002DE9F84314461D468046894600F06CF8E5
:1034F000224606460F462B4620462946FDF7BEFAD1
:1035000078B90022002340464946FDF785FAD8B134
:103510000022002320462946FDF77EFA28B1002626
:10352000254F30463946BDE8F8832046294600F04D
:1035300045F80028F5D02046294600220023FDF753
:1035400075FA0028EDD02CE03046394600F036F808
:10355000A0B10022002330463946FDF75DFA00286D
:10356000DFD04046494600F029F80028D9D020464F
:10357000294600F023F80028D3D012E040464946FF
:1035800000F01CF80028E4D02046294600F016F888
:103590000028DED032463B4630463946FDF76EFA0B
:1035A00020B9FFF773FF22230360BAE7FFF76EFF2E
:1035B00021230360B5E700BF0000F03F41F0004069
:1035C00000F58010C00F70472DE9F04F23F0004741
:1035D0000D4657EA020192469B46044693B010D12D
:1035E0002319814885F4002252419942904121D209
:1035F00052465B4620462946FCF7F0FD13B0BDE875
:10360000F08F9946794B25F0004199422E46009063
:10361000029114D9009B06F1404606F580161E4320
:10362000E6D153467049DB188BF4002252419E428A
:103630009141DDD300206E4913B0BDE8F08F14D066
:103640009F42E7D8029B00F0A580002E15DB002AE0
:1036500040F0B88066498F4240F0CE83B9F1000F48
:10366000C0F2B58420462946C8E70028C0D18F4261
:10367000BED800F0F283029BE7E75E498F4200F27A
:10368000B5835D498F423DD8002A40F0C483B9F12B
:10369000804F30D0904620462946049300F068FDC4
:1036A000009A049B002A4DD0F20F013A52EA080C0E
:1036B00000F09680002408F1FF3858EA020814BF91
:1036C0004B4D4E4DB7F1844FCDE9064540F29A80FF
:1036D0004B4B029A9F42484B40F2F6839A4200F2CB
:1036E0008784B9F1000FC0F28784002013B0BDE8D1
:1036F000F04F00F031BD22462B4620462946FCF70C
:1037000023FF7BE73915A1F2FF31142940F34684EA
:10371000C1F1340122FA01F000FA01F1914200F006
:10372000AF84002A40F07783B9F1804F0493E2D050
:103730002046294600F01CFD009A049B002A4FD128
:10374000DDF800802A4A26F0404C944502D0029AC7
:10375000002AA9D1B9F1000F05DA02460B46002074
:103760002349FDF71BF8002EBFF648AF029B03F17B
:10377000404B0BF5801B5BEA080B40F0308402469F
:103780000B4610461946FCF727FD02460B46FDF78F
:1037900005F833E7002A7FF43DAF029B009A03F15E
:1037A000404303F5801313433FF444AF124B029A96
:1037B0009A4240F2E683B9F1000FC0F250845046BD
:1037C00059461BE74FF0000820462946049300F0B5
:1037D000CFFC009A049B002AB4D0F20F013A69E7AB
:1037E00022462B46CDE700BF0000F0FF0000F07F2F
:1037F0000000F03FFFFF3F43FFFFEF3F0000F0BF3F
:103800000000F043D04A3240002A40F02A83CF4BD8
:103810000022FCF799FE6FF034040B461A15A2F251
:10382000FF321519CA4AC3F3130343F07F5493427E
:103830000B9544F4401407DDC64A934240F3E283FB
:1038400001350B95A4F580140022002300260025E5
:10385000C14FCDE90823CDE90467CDE91023DDE9A7
:10386000042321468046FCF7B7FCDDE90423A1468A
:1038700006460F4640462146CDE90C89FCF7AEFCD2
:1038800002460B460020B449FCF788FF02460B466F
:1038900030463946CDE90E23FCF756FE8046894670
:1038A000641044F0005404F5002359190D464A46AB
:1038B000414600230020CDE9001200930446024651
:1038C0002B46CDE90289DDE9008940464946FCF7EF
:1038D0003BFE02460B4630463946FCF77DFCDDE9EF
:1038E000042306460F4620462946FCF775FC02468F
:1038F0000B46DDE90C01FCF76FFC42464B46FCF73A
:1039000023FE02460B4630463946FCF765FCDDE9EE
:103910000E23FCF719FEDDE90245CDE9040122463C
:103920002B4620462946FCF70FFE75A3D3E900235A
:1039300004460D46FCF708FE73A3D3E90023FCF709
:103940004DFC22462B46FCF7FFFD71A3D3E9002373
:10395000FCF744FC22462B46FCF7F6FD6EA3D3E9A8
:103960000023FCF73BFC22462B46FCF7EDFD6CA345
:10397000D3E90023FCF732FC22462B46FCF7E4FD9A
:1039800069A3D3E90023FCF729FC224606460F462B
:103990002B4620462946FCF7D7FD02460B4630460B
:1039A0003946FCF7D1FD04460D46DDE902014246E9
:1039B0004B46FCF713FCDDE90423FCF7C5FD22466A
:1039C0002B46FCF70BFC424606460F464B4640464C
:1039D0004946FCF7B9FD0022604B04460D46FCF752
:1039E000FDFB32463B46CDE90C67FCF7F7FB0026B2
:1039F0000F4632463B4640464946FCF7A5FD0022AD
:103A00008046894630463946544BFCF7E5FB224652
:103A10002B46FCF7E1FB02460B46DDE90C01FCF707
:103A2000DBFBDDE90223FCF78FFD324604460D4641
:103A3000DDE904013B46FCF787FD02460B462046C4
:103A40002946FCF7CBFB06460F46002432463B4690
:103A500040464946FCF7C2FB35A3D3E90023204684
:103A60000D46FCF771FD42464B468046894620468E
:103A70002946FCF7B1FB02460B4630463946FCF7B7
:103A8000ABFB2DA3D3E90023FCF75EFD02460B46FA
:103A90002046294614461D4629A3D3E90023FCF7F6
:103AA00053FD02460B4620462946FCF797FBDDE90D
:103AB0001023FCF793FB04460B980D46FCF7DAFC49
:103AC00006460F4622462B4640464946CDE9028926
:103AD000FCF784FBDDE90823FCF780FB32463B461C
:103AE000FCF77CFB002032463B4680468946FCF7CB
:103AF00073FBDDE90823FCF76FFBDDE902232FE010
:103B0000EF4E454A287ECA3F65DBC9934A86CD3FC2
:103B100001411DA96074D13F4D268F515555D53FA8
:103B2000FFAB6FDBB66DDB3F033333333333E33F40
:103B3000000000E009C7EE3FFD033ADC09C7EE3F95
:103B4000F5015B14E02F3EBE0000F07F0000404313
:103B50008E98030079B60B000000F03F000008408B
:103B6000FCF73AFB02460B4620462946FCF734FB9D
:103B70000023CDE900AB0093DDE90067CDE9020148
:103B800032463B4650465946FCF726FB42464B46DA
:103B9000FCF7DAFC524604460D46DDE902015B46BD
:103BA000FCF7D2FC02460B4620462946FCF716FBE2
:103BB00004460D4632463B4640464946CDE902455D
:103BC000FCF7C2FC06460F46204629463B463246D5
:103BD000FCF704FBB64B044699420D46884640F379
:103BE0001C8101F13F4303F5E003034340F01B82D6
:103BF0009DA3D3E90023DDE90201FCF7EFFA0246B9
:103C00000B462046294614461D4632463B46FCF7E5
:103C1000E3FA02460B4620462946FCF725FF00281A
:103C200040F001824FF4007300204344C3F30A5272
:103C3000A04CA2F2FF321441C3F3130AC2F11402E2
:103C400004EA03014AF4801A0B464AFA02FAB8F170
:103C5000000F024639463046B8BFCAF1000AFCF7E9
:103C6000BBFA06460F46DDE9020132463B46FCF749
:103C7000B5FA0D464FEA0A5B00247DA3D3E9002381
:103C800020462946FCF760FC3246804689463B4682
:103C900020462946FCF7A0FA02460B46DDE9020160
:103CA000FCF79AFA74A3D3E90023FCF74DFC024613
:103CB0000B462046294614461D4671A3D3E900232E
:103CC000FCF742FC02460B4620462946FCF786FAE2
:103CD00006460F4632463B4640464946FCF77EFACA
:103CE00042464B4604460D46FCF776FA02460B4622
:103CF00030463946FCF770FA2246804689462B4604
:103D000020462946FCF720FC5FA3D3E900230646A2
:103D10000F46FCF719FC5EA3D3E90023FCF75CFA1D
:103D200032463B46FCF710FC5BA3D3E90023FCF7CB
:103D300055FA32463B46FCF707FC59A3D3E900236A
:103D4000FCF74AFA32463B46FCF7FEFB56A3D3E9A2
:103D50000023FCF743FA32463B46FCF7F5FB0246EC
:103D60000B4620462946FCF737FA06460F463246F0
:103D70003B4620462946FCF7E7FB02460B46304609
:103D8000394616461F4600224FF08043FCF724FABE
:103D900002460B4630463946FCF700FD42460646D1
:103DA0000F464B4620462946FCF7CEFB42464B4683
:103DB000FCF714FA02460B4630463946FCF70CFA7B
:103DC00022462B46FCF708FA02460B4600203A49E9
:103DD000FCF702FA0C465C44B4F5801FC0F22D815A
:103DE0002146DDE90623FCF7AFFB07E44FF00208AC
:103DF000002A7FF4E9AC4EE4B9F1804F3FF47BAC8C
:103E00002E4989457FF446AC2046294613B0BDE8CB
:103E1000F04F00F02FBA04938AE4DFF8A4C021F039
:103E20000043634540F2CB80264B0B4403430AD149
:103E300032463B46FCF7D0F9DDE90223FCF70AFEE7
:103E400000283FF4EFAEDDE9060100220023FCF775
:103E5000EDFD003818BF012048E4002A7FF4C8AB0C
:103E6000A4E40024DAE400BFFE822B654715973CEA
:103E700000000000432EE63FEF39FAFE422EE63FF7
:103E8000396CA80C615C20BED0A4BE726937663E56
:103E9000F16BD2C541BDBB3E2CDE25AF6A56113F4A
:103EA00093BDBE166CC1663F3E5555555555C53F31
:103EB000FFFF8F400000F0FF0000F03F0000E03FF8
:103EC000FFCB904000346F3F9A42C0F0BA80029A14
:103ED0008B4B9A424FF0000200F2C580884BFCF7F2
:103EE0007BF97BA3D3E9002304460D46FCF72CFBAA
:103EF00079A3D3E900238046894620462946FCF76A
:103F000023FB0022CDE900017E4B20462946FCF729
:103F10001BFB02460B4672A1D1E90001FCF75CF9DC
:103F200022462B46FCF710FB02460B460020764942
:103F3000FCF752F922462B4606460F4620462946F4
:103F4000FCF702FB02460B4630463946FCF7FCFA0A
:103F500065A3D3E90023FCF7F7FA02460B46DDE937
:103F60000001FCF739F904460D4640464946224611
:103F70002B46FCF733F9002042464B4680468946E3
:103F8000EEE5B9F1000F4FF000004FF00001BFF671
:103F900035AB50460BF10041FFF730BB002A7FF4F0
:103FA0003AAFC1F1140147FA01F000FA01F1B94248
:103FB0006DD053498F423FF451ABFFF768BB524A73
:103FC00093427AD8DDE900239346924654E622468E
:103FD0002B4600204A49FCF7E1FBFFF70FBBB8F185
:103FE000010F7FF40BAB01F100431946FFF706BB4D
:103FF000B9F1000F7FF779AB002013B0BDE8F04FA7
:1040000000F0B0B80022414B4FF48025CDE90423E5
:1040100037A3D3E90023CDE9082337A3D3E900234D
:10402000CDE910231BE40022DDE906010023FCF7A3
:10403000FDFC003818BF0120DFE7524600F09CF875
:10404000CFE60022DDE906010023FCF7EFFC003893
:1040500018BF0120B9F1000FBFF648ABCDE7002033
:104060000021FFF7CBBA0023DDE90601FCF7DEFCF7
:10407000003818BF0120B9F1000FBEDCFFF736BBD6
:104080009AB100F00100C0F10208FFF79DBB1C4A85
:1040900097423FF4E3AAB9F1804F3FF42CAB00F014
:1040A0000100C0F10208FFF7F6BAB9F1804F3FF402
:1040B00022AB4FF00208FFF7EEBA4FF480121B1547
:1040C000A3F2FE3342FA03F3AEE500BFAFF3008084
:1040D000000000604715F73F44DF5DF80BAE543E2B
:1040E000555555555555D53FFE822B654715F73F1C
:1040F0000000004003B8E23F06D0CF43EBFD4C3E4A
:104100000000F03F0000D03F0000E03F0000F83F1B
:10411000D0B506460F461446FFF7B8F903463946B0
:1041200030461C60D0BD00BF00B583B080B11046E2
:1041300003F10041CDE9000110461946DDE90023F5
:10414000FCF702FA222203B05DF804EBFFF7E0BFB0
:1041500010461946EEE700BF00224FF08053FFF7EC
:10416000E3BF00BF00224FF0E043FFF7DDBF00BF19
:1041700021F00043194670472DE9F0411646C1F37E
:104180000A52074688460B466ABB21F000430343A8
:1041900027D0334B0022FCF7D7F9324B07469E421B
:1041A00088463CDB0B46C1F30A52363A4CF250319A
:1041B0008E4221DC164440F2FE7296421CDC002E38
:1041C00026DC16F1350F31DB23F0FF4121F4E0014D
:1041D000363641EA0655002238462946224BFCF77E
:1041E000B3F9BDE8F08140F2FF7C6245DED10246C2
:1041F000FBF7F4FFBDE8F081454615A3D3E90023A2
:1042000063F31E0529461948FCF79EF9BDE8F081C5
:104210006FF31E53384643EA0651BDE8F0810EA302
:10422000D3E90023FCF790F9BDE8F08108F00044E1
:1042300044F0D27141F4B73107A3D3E900230C480D
:1042400041F01F01FCF780F9CBE700BFAFF300801E
:104250009C7500883CE4377E59F3F8C21F6EA501B7
:1042600000005043B03CFFFF0000903C9C7500886C
:1042700059F3F8C2724A2DE9F84F8A4306460F46B1
:1042800000F0A98000290C46034655DD081562D0D0
:10429000C4F31302C107A0F2FF3742F4801203D423
:1042A000D90F01EB42025B00002616244FF40011E7
:1042B000B446520002EBD3727F105B000CEB01009E
:1042C00090424FEAD3754FEA430303DC00EB010C45
:1042D000121A0E44013C05EB42024FEA5101EDD1A6
:1042E00020254FF00040A0460AE043D0510001EBEA
:1042F000D371013D0A464FEA43034FEA500045D0CF
:10430000944508EB000EF0DABEF1000F0EEB00084A
:104310000CDBE146A2EB0C01CC469E4588BF01F1C7
:10432000FF314900A3EB0E030444E0E7B8F1000FAE
:10433000EFDB0CF10109EDE721F00042024344D02C
:1043400000296BD1DA0A153C5B05002AFAD0D602A7
:1043500020466CD4144600226400E502114602F1A6
:104360000102F9D5C2F1200523FA05F52C4393404B
:10437000401A8DE79E4502D94FEA4C01B7E7BEF1DE
:10438000000F0EEB000822DB0021CBE7194312D00F
:10439000DFF8B0A0DFF8B0B0DAE90001DBE9002314
:1043A000FBF71AFFDAE9008902460B464046494608
:1043B000FCF746FBC8B96508731003F17F5303F59A
:1043C000001303EB075145EAC670BDE8F88FB8F15A
:1043D000000FAEDAD8E702460B46FCF7B5F83246D6
:1043E0003B46FBF7FBFEBDE8F88FB4F1FF3FDAE98F
:1043F0000001DBE900231ED0DAE90089FBF7EEFEBD
:1044000002460B4640464946FCF710FBA8B1A31CE8
:1044100004F1020508BF01366D08CDE702460B46E0
:10442000FBF7DAFE02460B46FCF7B8F9CDE74FF092
:10443000FF3114469CE70136BEE70134BBE700BFFD
:104440000000F07FC0440008B8440008F8B500BF81
:10445000F8BC08BC9E467047F8B500BFF8BC08BC65
:044460009E467047BD
:10446800300F490F340F400F430F490F4C0F500FB7
:10447800F10BD10ACC0AFD0B470BB80B860BCC0B02
:104488000102030405060708090A0B0C0D0E0F109C
:1044980002030405060708090A0B0C0D0E0F10107D
:1044A80000000000000000000102030406070809DC
:1044B80059F3F8C21F6EA501000000000000F03F8C
:0444C800D50D000806
:0444CC00B10D000826
:1044D000E901000001010100CDCCCC3D0000003F0E
:1044E000010000001000000000127A0020000020EF
:1044F00000000000EC01002054020020BC0200205B
:1045000000000000000000000000000000000000AB
:10451000000000000000000000000000000000009B
:10452000000000000000000000000000000000008B
:0C4530000000000000000000000000007F
:04000005080034318A
:00000001FF
